:020000040000FA
:1000000070500020895700002B67000075570000D2
:1000100075570000755700007557000075570000B0
:10002000000000000000000000000000E957000090
:10003000755700000000000075570000755700005C
:1000400071070000710700007107000071070000D0
:1000500071070000710700007107000071070000C0
:1000600071070000710700007107000071070000B0
:1000700071070000710700007107000071070000A0
:100080007107000071070000710700007107000090
:100090007107000071070000710700007107000080
:1000A0007107000071070000710700007107000070
:1000B0007107000071070000710700007107000060
:1000C0007107000071070000710700007107000050
:1000D0007107000071070000710700007107000040
:1000E0007107000071070000710700007107000030
:1000F0007107000071070000710700007107000020
:10010000710700007107000071070000710700000F
:1001100071070000710700007107000071070000FF
:1001200071070000710700007107000071070000EF
:1001300071070000710700007107000071070000DF
:1001400071070000710700007107000071070000CF
:1001500071070000710700007107000071070000BF
:10016000FD1C00007107000071070000710700000E
:10017000710700007107000071070000710700009F
:10018000710700007107000071070000710700008F
:10019000710700007107000071070000710700007F
:1001A000710700007107000071070000710700006F
:10047000710700007107000071070000036803F0B6
:100480001F025F2B02604FEA53129ABF024B53F8D0
:1004900022000020704700BF0087000007B50190D0
:1004A00001A8FFF7EBFF019B00EB8300D0F8802051
:1004B000044B134043F00203C0F8803003B05DF8F2
:1004C00004FB00BFF0F0FCFF2DE9F047058B04466C
:1004D0002807904612D4022905F0070540F0CD8088
:1004E000204605F084FA80B10138218B042800F2FF
:1004F0009F80DFE800F0C29D657D8D0001290CBF63
:1005000045F0100545F02005258388F31188BFF3D9
:100510006F8FBDE8F08701F007035A1F012A1CD82E
:10052000002221F00701062B276889B2C4E90022C6
:1005300009D13B4603E0628B013262831B68002BCA
:10054000F9D141F002012046218305F050FA00283C
:1005500000F0A18041F020019CE0042B0AD121F0A1
:10056000070189B22046218305F041FA10B141F01C
:1005700020012183218B01F0070AAA4575D00027AD
:10058000B946A368002B00F08E8041F0080121835A
:1005900088F31188BFF36F8FA168002900F08C8069
:1005A0000D68002900F08880334652462046D1F875
:1005B0000480C047002D48D02B6829461D46F0E72F
:1005C000236921F0070141F00601062DD3F80090C0
:1005D000218335D1B9F1000F47D041F008012183C3
:1005E00088F31188BFF36F8F20463D49C84731E03B
:1005F00021F00701236941F0040189B2042DD3F8E9
:1006000004902183E6D000274FF0040A3E46B8E765
:1006100021F00701236941F0050189B2052DD3F8C6
:1006200008902183D6D000274FF0050A3E46A8E760
:1006300001F0070AAA4518D00027B9463E46A0E7B0
:1006400000274FF0060A3E469BE72B46B5E7B9F177
:10065000000FC9D1EFF31188202383F31288BFF371
:100660006F8F238B23F008032383258BEA062ED577
:1006700025F01003238305F007056669218B002E02
:10068000BFF649AF00232768C4E9003321F0070112
:1006900041F001012183218B4FF0000901F0070A8D
:1006A000AA457FF46EAF002F94D041F0080121835A
:1006B00088F31188BFF36F8F002FC8D03D6839468B
:1006C00033465246204605F080F92F46F4E7AB0644
:1006D0007FF51BAF25F02003238305F00705FFE618
:1006E000275A0000002318460649D1F89020C2F38B
:1006F0000722934200DB7047C1F89830C1F8A00090
:100700000133F6E700ED00E0002807DB0123410993
:10071000034A00F01F00834042F82130704700BFB9
:1007200000E100E000280CDB01220649430900F04B
:100730001F008240203341F82320BFF34F8FBFF3C7
:100740006F8F704700E100E00028ACBF00F160400F
:10075000064B4FEA4111C9B2ABBF00F5614000F052
:100760000F0080F800131954704700BF14ED00E02B
:10077000EFF30583034A103B02EBC301496852F8CB
:1007800033000847E08A000030B5104CD4F89030B0
:10079000C3F30723013B984215D80D7A0B6805F087
:1007A0001F0223F01F031A43CB686D0923F01F03B8
:1007B00043EA450343F00103C4F89800C4F89C20C1
:1007C000C4F8A03030BD6FF01500FBE700ED00E08D
:1007D000254B264A4FF47A611A600122244B2548A2
:1007E000C3F80424D0F82436C3F30802C3F3094342
:1007F0004B4382F480722049883201FB02334FF46C
:10080000FA215B00B3FBF1F201FB12331B49B3F594
:100810007A3F28BF0132C1F80429D0F820364FF4BE
:100820007A60C3F30802C3F30943434342F604105A
:1008300082F4807202F2172200FB02334FF47A70C6
:100840001B0AB3FBF0F200FB12330020B3F5FA7F72
:100850004FF0010328BF0132C1F81C27C1F800097D
:10086000C1F80036704700BF7C0200200020A107BD
:10087000002008E000C0FF00102700800000125098
:10088000084B70B5C31A0D4607499B1004465943DF
:100890004022064805F070F92B4601462046BDE887
:1008A00070401847C81E0020B76DDBB6746F00009B
:1008B000402373B50B4C0093041B0B460D460A49AD
:1008C000A41061430646094A094805F081F9011E52
:1008D00005DA30462B4602B0BDE87040184702B03A
:1008E00070BD00BFC81E0020B76DDBB6415C0000C4
:1008F000746F0000014B1B68184700BFB81E002032
:1009000070B50221044640F20510FFF71DFF1D4B94
:100910001A7912B16FF0040070BD1B4A1A600122EF
:100920001A711A4B19790029F4D119491A711960F1
:10093000184B19790029EDD117481A711860174B17
:10094000C3F84014164B1B6A9B0603D440F20510F3
:10095000FFF7DAFE236993B11C220021184606F046
:1009600094FA01251C220F4E0564066124690021BA
:10097000A01806F08AFA0020E662E564CCE76FF082
:100980001500C9E7B81E002065170000C01E002032
:10099000F50800001C1F0020535C000000E0105010
:1009A00000E100E0E88600000023024A0020C1E9DF
:1009B000002370470050160000487047E086000092
:1009C000024B0B6001231360704700BFD886000004
:1009D000024B034A0020C3F80C25704700B00450B6
:1009E000800000804209022A034670B503D0012A24
:1009F00018D0CAB170BD0E4E326951680029F9D0C5
:100A0000012503F01F030C689D400029F2D08A687D
:100A10002A4002D030464B6898473CB123682146B3
:100A20001C46F2E7034EE7E7034EE5E72346F6E709
:100A3000B46F0000946F0000D46F000008B5074841
:100A400004F0FEFF38B100220121044805F050F9FE
:100A500000EAE07008BD6FF01200FBE7D46F000001
:100A6000F0B585B06E4681680546103921F00F0457
:100A700005F02AF832460A4B03F1100C3746186885
:100A80005968083303C763453E46F7D11023214612
:100A9000284605F003F8003818BF012005B0F0BD66
:100AA000EE880000064BD3F840231C2A05D1D3F86A
:100AB0004403431E5842584170470020704700BF0E
:100AC00000C0FF0003689A070CD50368DB070DD54B
:100AD0000922074BC3F80C250F22C3F80425012275
:100AE0001A60FEE7034B0360EF3B0360704700BFF3
:100AF00000801050F000FA50042370B50D4C42F203
:100B00001075C4F808330123636100230A4EC4F84A
:100B10000831D4F8083146F00106D4F84C34DB0330
:100B200007D5064B1868064BB0FBF3F0B047013D04
:100B3000F3D170BD00E01050807100007C020020F5
:100B400040420F0010B51D4B1D4CD3F84C14D3F888
:100B50004C2411F4803F18D002F00302012A03D084
:100B60000AB1FFF7C9FF0022144BC3F8402400224A
:100B7000C3F80821D3F8082101221A61226872B94A
:100B8000D3F80821002AFBD011E0D3F84824D1077C
:100B9000E9D5D3F850249207E3D422681AB104228D
:100BA000C3F8042310BDD3F80821002AFBD000228B
:100BB000C3F80821D3F80831F4E700BF00E0105073
:100BC0001C1F0020034A4309D35C00F01F00184497
:100BD000C0B27047848A0000F0B50646002487B092
:100BE000114F019117F8012B06AB03EBD20313F859
:100BF000143C02F00702D34013F0010306D1013484
:100C0000032CEFD10023184607B0F0BD074A03AD0F
:100C100007CA85E8070055F824100A6A46F8242018
:100C20000A62002AEBD0EEE7948A000040710000CF
:100C3000124B70B553F82050013053F82060AE428B
:100C400000D870BD6C68B4B1237EDB0711D4636932
:100C500053B12046984738B10028B8BF4042FF281A
:100C6000A8BFFF20E3681870E268537843F00103DF
:100C700053700835E3E72B689847FAE7B086000021
:100C800030B570B10B4B5B6898420AD0036843B132
:100C9000D3E90421D0E90445121941EB0501C3E968
:100CA0000421D0E9003213605A600023C0E9003308
:100CB00030BD00BF6C02002030B50E4B1B68BBB9C5
:100CC0004FF0FF306FF040410B4CD4E900239042CD
:100CD00071EB0305F9D30949D1E90001101A084A5B
:100CE00063EB0101C2E90001400940EAC16030BD87
:100CF0000020FCE7B41E002040270E5060030020B7
:100D0000500300200B4B1A689A420FD072B1D2E9FF
:100D100004321B1A62EBE072B3F1004F72F1000172
:100D200004DA002AACBF1846002070476FF000407C
:100D3000704700BF6C02002010B5EFF31184202330
:100D400083F31288BFF36F8FFFF7B6FF0346054AA0
:100D5000D2E90001181841EBE37184F31188BFF365
:100D60006F8F10BD4803002001680E4A0346914270
:100D700015D1C169A2F11022A2F1EF1291420ED158
:100D80008268012A0BD8C26812B101698A4206D072
:100D9000586928B19B691B1A584258417047012075
:100DA000704700BF55AA00FF70B50D4B9E68A6B1F5
:100DB0003046FFF7D9FF044678B9F3686BB9356957
:100DC0000DB9204670BD2846FFF7CEFF28B9EB6865
:100DD000B34202D12E462D69F2E70124F1E700BFAC
:100DE0008C1E002010B5034B0A461B6800210446E8
:100DF000984710BD5402002010B5044610B109B147
:100E0000FFF7F0FF024B2046BDE810401B68184773
:100E10005802002070B5446A05460E4644B9074B97
:100E200001201B689847686228B12046AE6270BDF9
:100E30006FF08A00FBE76FF08C00F8E75C0200209F
:100E40000022074BC3F81021C3F80C21C3F800217E
:100E5000C3F80421C3F80821C3F81421704700BF68
:100E60000050045008B5FFF7EBFF01230360104B5F
:100E70000A6832B9D3F80C211AB9D3F80821002A2C
:100E8000F6D00B687BB90B4B99420ED0A3F5847357
:100E9000D3F80831002B0CBF4FF0FF306FF0020089
:100EA000FFF7CEFF08BD0020FAE74FF0FF30F7E76D
:100EB000005004500851045038B5064D0C46C5F892
:100EC000000505490548FFF7CDFF10B9D5F80835ED
:100ED000236038BD00500450105104500C50045091
:100EE00070B51C4E44680288B6EB142F43884FEA55
:100EF000142513D14069184B98420BD003F5FF43DA
:100F00007D330344012B02D8B2F5105F1AD06FF085
:100F1000860016E047F212139A42F7E70F4885421F
:100F2000F5D102F44F40B0F5824F0DD144F21210CA
:100F3000073382424FEAD30301D15B000133002023
:100F40000B6070BD0223FAE7B2F5885FFAD1073370
:100F5000DB08F4E7004E800001C0FF7F4B4E8000AD
:100F600010B5F82005F068F818B9F92005F064F814
:100F700010B16FF0920010BDF823094C09490A48DE
:100F8000C4F80035FFF76EFF0028F2D1F9230648B8
:100F9000C4F80035FFF766FF0028ECD0E9E700BF92
:100FA000005004500451045004500450C36870B5FC
:100FB0007BB9C36900F128021A60C369454A9A6087
:100FC0004368C269DB6843F48063D360C36910334C
:100FD000C361836A9B052FD40368C268DD6800F192
:100FE000EC04302D34BF082610261D6901366B1E17
:100FF0001340EB1AB34238BF5B191C44D50004F808
:10100000015C03F1EB045209044400F1ED05A54233
:101010005CD1802280F8EC20426AC469C43222602C
:10102000C26993604468C269E468D460C2691032DE
:10103000C26102691A4402610269C469D31C23F0C7
:1010400003039B1A54F8042C42EA032244F8042CAC
:10105000C26952F8084C234443F0005342F8083C5C
:10106000026A0368DB6811600168026AC9680333B9
:101070009160026A23F0030302F11001016201682A
:10108000C96899420BD0002111610168026AC968E0
:101090005B1A43F080439360036A10330362836AF0
:1010A00013F4806311D102685169D26891420CD067
:1010B000026A13600268016A5369D2689B1A43F09E
:1010C00080438B60036A1033036270BD04F8012D06
:1010D000120A9CE70400002010B5154BD86C28BB01
:1010E0001A684FF0010C91690824C1F30B02482AD9
:1010F0001A6528BF482211F4003F5A6508BF002234
:101100009A65CA0358BFC3E9140001F47002B2F52E
:10111000700F08BF586D0029B8BF0022C3E918C47A
:10112000B8BFC3E9182201225865DA64014810BD2E
:10113000300800207C0800202DE9F041DFF818C1BC
:10114000464CDCE90021D4E90054A14208BFAA4280
:10115000434B444C1B7A25D1B0F1806F22D2400121
:10116000012838BF0120121841F10001CCE900210B
:10117000E21892F854201B010C3254F8321004EBA0
:10118000C2067568091803F1A04345F1000540F057
:10119000004003F5622344F832107560C3F8280557
:1011A000BDE8F081304E314FD6E9005ED7E90067E7
:1011B000AD194EEB070E4FF020082E467746C0FBC8
:1011C0000867E018CCE90067B24290F854C071EBB0
:1011D0000708C7F313000CF10C0C1BB20ED304EB81
:1011E000CC0244F83C6057601B0103F1A04303F5B7
:1011F0006223C3F82065C3F82405D1E7521B61EBD5
:101200000E01C82A04EBCC0871F1000144F83C60DF
:10121000C8F80470E8DA1A0102F1A04202F562226D
:10122000C2F82065C2F82405114A9B001A441368CD
:10123000002BB5D04FF0FF346FF040430D4DD5E992
:101240000001844273EB010CF9D3B04271EB070744
:10125000A6D200231360A3E7000300205803002058
:1012600060020020A0000020600300205003002046
:1012700000210E5040270E502DE9F84F394C002721
:10128000D4E90065911B63EB0500490941EAC0619F
:10129000480180194FF0000645EBD165C4E900050F
:1012A0003148C0E90023314BC3E90067EFF3118CEB
:1012B000202383F31288BFF36F8FDFF8B4A0DFF829
:1012C000B480DAF800002C4D504508BF0020C8F863
:1012D0000010E146D5E90021D8F8003078B3D0E914
:1012E000044C4FEAE37EA3427EEB0C0B05DAE41AD2
:1012F0006CEB0E06C0E9044621E0A21841EBE47154
:10130000C0E90467C5E90021FFF7BAFC89F3118839
:10131000BFF36F8F83689847EFF31189202383F31E
:101320001288BFF36F8FD8F80030DAF800001B1B6B
:101330005045CC46C8F80030CBD1D5E9002100207B
:101340009A1841EBE373C5E90023C8F80000FFF7E2
:10135000D9FCFFF7F1FE89F31188BFF36F8FBDE869
:10136000F88F00BF600300205803002050030020C6
:101370006C020020B41E002048030020B3F1FF3FA0
:1013800008BFB2F1FF3F2DE9F84F04461F4615464E
:10139000984679D03E4B8360EFF31186202383F388
:1013A0001288BFF36F8F002FDFF8E8901FDBFFF785
:1013B00083FCD9E9003284464FF00109013547F139
:1013C00000072D1847EBE077C4E90457ED1847EB09
:1013D0000208314A1368D2F804A0934208BF0023E0
:1013E000E3B9C4E9002ACAF80040546028E06FF06D
:1013F0000103D9E900125B1A4FF0FF3161EB0202E1
:101400005B1B62EB0702012B72F10001BCBF0123E1
:1014100000224FF00009C0E90432DAE7D3E9040EF4
:10142000D4E90417814277EB0E0B24DA401A59688D
:101430006EEB0707C3E90407C4E900310C605C6088
:10144000136893420FD09C420DD1144B1B6853B9C3
:10145000B9F1000F02D1FFF72FFC84466046FFF779
:1014600051FCFFF769FE86F31188BFF36F8F2846A2
:101470004146BDE8F88F091A67EB0E075345C4E9EA
:101480000417AED01B68ABE70025A846EFE700BF06
:1014900015610000480300206C020020B41E0020EB
:1014A00000222DE9F04F4468036994F826501A6031
:1014B0008046A06A85B005F0030578B9D8E90147F0
:1014C00094F82510D8F81060FF2926D0D7F8289076
:1014D000B9F1000F19D16FF0570013E004F0B0FA22
:1014E000002800F01181002D14BF4FF4D0134FF4E9
:1014F000B013E28DA06A94F82C101A4304F0F8FBA4
:101500000028DBDA05B0BDE8F08F94F82430002B1A
:101510004ED14046C8470028F4DB94F82610C1F3AA
:10152000810102290BD0D8F8083000391B6B18BF95
:101530000121002BCFD0404698470028E2DBA2686B
:10154000B2F1004F05D01146404604F0EBFB0028F5
:10155000D8DB6269B2F1004F11D0D8E901131B6AE0
:10156000002BB8D00869824200F3CB80C9688A4258
:10157000C0F2C7801146404698470028C2DB236866
:10158000B3F1004F1FD0D8F808305B69002BA2D010
:10159000404603A998470028B4DB2268039B9A427F
:1015A00076DD1146404604F0BDFB002810DAA9E7BD
:1015B000226A134412F8010B8142AAD09A42F9D14F
:1015C0006FF085009EE76FF0004362689A42DAD1BF
:1015D000002D61D194F826309B0764D040463B68CB
:1015E000984700288EDBA269002A4DD0EFF31187BF
:1015F000202383F31288BFF36F8F1F3245F100055C
:10160000520942EAC562013A01926AEB0A0AEFF313
:10161000118B83F31288BFF36F8F3D4D2B6863B13D
:101620003C4A284614684FF0000894424FF00049A5
:1016300057D1FFF725FBC5E904898BF31188BFF368
:101640006F8F002200234FF00008C5E90A233048BD
:101650005346019AC5F83080FFF790FE87F3118852
:10166000BFF36F8F2022EFF3118082F31288BFF354
:101670006F8F2B6823B12B6BC5F83080002B3DD0CA
:1016800080F31188BFF36F8F3368013333600AE052
:10169000626893429CDD84E733680133336094F8D9
:1016A0002630D80601D400202CE7D8E90132516851
:1016B000D8F810400029F6D093F82630D907F2D494
:1016C0002368002BEFDD013B2360002BEBD140466C
:1016D000536898470028BFF615AF2368013323608D
:1016E00010E7FFF7CDFAAC42C5E90489A5D1FFF7B1
:1016F000E3FAFFF707FBFFF71FFD9EE704F002FA8E
:10170000B1E76FF01500FDE66FF01200FAE600BFDA
:10171000C80200206C0200200C22104B014602FB84
:101720000033002030B4D3E90E529863EFF31180F8
:10173000202484F31288BFF36F8F1C6C04F0C00464
:1017400044F002041C6480F31188BFF36F8F1DB155
:101750002B4630BC0248184730BC7047C81E0020DA
:10176000746F0000022808D0042808D1044B186CBC
:1017700010F0070003D1FFF7CFBF0120FBE7704750
:10178000C81E0020154B9A6A12F0007F9A6A14BF97
:101790001E201D2012F0807F9A6A18BF1F2012F4AD
:1017A000801F9A6A18BF022012F4002F9A6A18BF8D
:1017B000212012F4802F9A6A18BF222012F4003FD1
:1017C0009A6A18BF232012F4803F9A6A18BF242017
:1017D0006FEA02426FEA12429A62704700ED00E03F
:1017E00010B5184B0246986A9C6A10F4805F14BFCB
:1017F0001720162014F4006F9C6A18BF1820A40547
:1018000008D5986A000404D51AB19A6A22F40042F5
:101810009A6219200B4B9A6A12F4806F9A6A18BF69
:101820001A20D2050CD49B6A13F4005F18BF1C2049
:10183000044A936A43F47F43936200230B7010BD04
:101840001B20F5E700ED00E010B51C4B0246986A3E
:101850009C6A10F0100F14BF1120102014F0080F14
:101860009C6A18BF1220A40709D5586B986A000615
:1018700004D51AB19A6A22F080029A6213200F4BA3
:101880009A6A12F0010F9A6A18BF142012F0200F02
:101890009A6A18BF1520D40658BF9B6A074B9A6AEC
:1018A000920642BF5A6A22F400525A629A6A42F081
:1018B000FF029A6200230B7010BD00BF00ED00E034
:1018C0002DE9F84F06460F46904699460024DDF86C
:1018D00028A0DFF844B0A24501D800200FE0AAEB11
:1018E0000405B5F5806F28BF4FF4806530462B4660
:1018F000094A04EB080104F0AFF810B10120BDE87B
:10190000F88F2B465A46384604EB090104F0C6F816
:101910000028F3D12C44DEE7A403002038B50D4B9A
:101920000546C068DC6D04F04AF8844203D2E868DA
:1019300004F045F804464FF440726243A9686442DB
:101940005032224001232846891A04F04EFCC00F71
:1019500038BD00BF281E00202DE9F041476806462B
:10196000BD6885B395F874406CBB4622214605F1ED
:10197000140095F8758005F088FA21461F4A2B68F7
:1019800052F838C08C452ED14FF0000840F20D14AB
:10199000C3F84481D3F84421194A934214BF204626
:1019A000DB20FEF7B1FE012385F874302B66BB689F
:1019B000144A0221DB20C3E90328FEF7C5FE0221F9
:1019C0002046FEF7C1FEF36953B103221A71F26992
:1019D00022B1D26812B1D26912790AB900221A7101
:1019E0000020BDE8F081CAB2920002F58070442A5E
:1019F00004BF1C501A580131C4E700BFC88600005C
:101A000000A00D50E50900000022144B10B51A602B
:101A1000134B144A00211A60134B144A1A60144BDA
:101A200013F003020FBF4FF4006402F2FC74C2F122
:101A300004029B181846224605F027FA0D4A0E4963
:101A4000C2E900040160A1F11021203CA1F1EF11D5
:101A500090604460C161D060002010BD9C1E0020D9
:101A60005C0200208920000058020020752100003F
:101A7000682000208C1E002055AA00FFF8B51E4DDE
:101A8000064695F880350F467BB300242B46224648
:101A9000197FD1B13CB9022905D1196A19B919794F
:101AA000002918BF1C460132202A03F12C03EFD174
:101AB00014B96FF08C0006E0204604F0B0FA20461E
:101AC00004F0D2FB10B100240DE01C46237F7BB94B
:101AD0000123237736B1094B651BAD105D4305F13A
:101AE0008045356000203C60F8BD6FF08800EAE773
:101AF0006FF09600E7E700BF9C080020A38B2EBA8A
:101B000070B5174D1446A84226D8C0F5B21303F598
:101B100080539A4220D8CAB142F20103114DC5F850
:101B20000035A9B105F0B9F9BFF35F8FD5F81834C6
:101B3000DB0706D4C4F308041CB10123AB60BFF378
:101B40005F8F4FF40052074BC3F80025002070BD93
:101B5000FF2105F09AF9E7E76FF01500F7E700BFFE
:101B6000FF4F160000B0045010461A46084B10B53F
:101B7000994209D8C1F5B21404F58054A24203D8A1
:101B800005F08BF9002010BD6FF01500FBE700BFDA
:101B9000FF4F160010B4EFF31182202181F3128859
:101BA000BFF36F8F2B48036843F0020413F0010F5B
:101BB0000460294B26D182F31188BFF36F8F002276
:101BC000C3F81021D3F81011C3F81821D3F8181155
:101BD000C3F81421D3F814112049D1F840131C295B
:101BE00004BF012199601C4BC3F80021D3F80021E8
:101BF00001221A601A4A12680AB37122C3F8042338
:101C000010BC7047D3F80C04C003D4D5EFF3118097
:101C100081F31288BFF36F8F12490B6C03F0C0037E
:101C200043F002030B6480F31188BFF36F8F82F3DC
:101C30001188BFF36F8F002010BCFFF76DBDD3F884
:101C40000021002AFBD00022C3F80021D3F8003184
:101C5000D6E700BF181F002000E0105000C0FF00B2
:101C6000C01E0020C81E0020F8B5EFF31186202307
:101C700083F31288BFF36F8F194A136823F00201B0
:101C8000116013F0010222D17121164B42F210743F
:101C9000C3F8081301215960C3F80021D3F80021CB
:101CA000114A124DD2F840230E4F1C2A08BFD960AA
:101CB00045F00105D7F80C3413F480330CD00C4BED
:101CC00018680C4BB0FBF3F0A847013CF2D186F347
:101CD0001188BFF36F8FF8BD074A5371F7E700BF54
:101CE000181F002000E0105000C0FF0080710000AD
:101CF0007C02002040420F00C01E0020684620F0F9
:101D000007018D4601B5194BD3F80021DAB1BFF3B5
:101D10005F8F4FF0A3418A6ABFF35F8FBFF35F8F7E
:101D20004FF0FF300863BFF35F8F0021C3F800114D
:101D3000D3F800310E4B196819680A431A60BDE8E0
:101D4000014085467047D3F808110029F7D00220DA
:101D5000084909688860C3F80821D3F80831064BA0
:101D60001A681A6842F00102E8E700BF00800450D8
:101D70006C03002030080020680300202DE9F04F9C
:101D8000814659F8043B8BB0D3F8141390F8754092
:101D900000936C4BC9B241F40031804653F83420B3
:101DA000009804F068F8810305463AD50023CDE990
:101DB00007330993634B07A803EBC4035B68194619
:101DC0000193FEF709FF042303EBC40303934FF0D1
:101DD000000B5D4B0DF11C0A0293029A594912F84F
:101DE000013B0292039A02EBD3028A5C03F00703E1
:101DF00022FA03F3DA071AD40BF1010BBBF1030F3C
:101E00000AF1040AE9D14FF400310022009804F0ED
:101E100032F8019907A8FEF7DFFE0028D7D125F494
:101E200000350124002D75D10BB0BDE8F08F474B74
:101E30005B440493DAF800100029DDD091FAA1F197
:101E4000B1FA81F1049B1C7841EA44142046FEF764
:101E5000B9FE08EB4000878AC808BB080593012338
:101E60001AF8002001F0070103FA01F122EA010249
:101E70000AF8002006A80694FEF700FB069A059BC8
:101E8000203250F82220C7F382065B073746C2F3A0
:101E9000014223D54846D6B221463A4604F09EF880
:101EA00006A80694FEF7EAFA069B203350F8233082
:101EB000C3F301439E4207D10021204604F002F8FB
:101EC0003146204603F0FEFF06A80694FEF7D6FA38
:101ED0000122069B02FA03F30362ABE7022A0DD14B
:101EE0000321204603F0EEFF06F00503012BEBD1A2
:101EF0003A462146484604F071F8E5E702212046BB
:101F0000059203F0DFFF032EF2D0059A032ADBD1FE
:101F1000022EECE795FAA5F3B3FA83F3009904FADD
:101F200003F225EA020503F5A27251F8222008EB1C
:101F300043034846B3F86410C2F3014204F04EF87C
:101F400070E700BFC8860000948A0000948A0000F1
:101F5000012270B54549D1E8EF3FC1E8E02F0028E4
:101F6000F9D13BBB42498A608A684B6002F00302A8
:101F7000012ACB601ED1CB608A68032A1AD8EFF3FE
:101F80001185202282F31288BFF36F8F4FF6FF7600
:101F90003848848E04F00702C48EB4423CD0022A32
:101FA00027D10134C48685F31188BFF36F8F1C30AD
:101FB00003F00BFDEFF3058098B3EFF311802023BE
:101FC00083F31288BFF36F8F01212B4A2B4CD2F879
:101FD0004C54D2F84C34ED032DD503F00303012B00
:101FE00029D100293ED080F31188BFF36F8F0020E4
:101FF00070BD5124D440E6070ED50B60036A43B987
:10200000C0E9071142B92A4602211D48FEF75CFAD1
:10201000D0E719600162F5E785F31188BFF36F8F90
:10202000C8E7184B1B78002BC7D00422124B01467F
:10203000C3F80823C9E703F065FDD2F8403413F074
:10204000FF03C4D1D2F80851002DC0D0C2F8083126
:10205000D2F8083120250123C2F84034C4F8A05139
:102060001361B4E70423C2F80433C0E7B01E0020B4
:10207000A01E0020C81E002000E0105000E100E07B
:10208000E41E002068280020F8B5384D2B68EE6863
:10209000D3B1AB68C3B1002860D000295ED001FB8A
:1020A00000F4B4FBF0F0884258D1211D56D8A207A5
:1020B0000CD024F003020432334603E05868904207
:1020C0004ED29B69002BF9D11846F8BD2246F3E7A2
:1020D000801A232803F120061CD801229A60D3E934
:1020E0000512A9B18A619A690AB159695161002240
:1020F000C3E905222B69DB0703D5FEF755FE00284F
:1021000031D122460021304604F0BFFE0346DBE712
:10211000EA60E8E702F1200C03EB0C012038C1E98A
:102120000107CB601869124F086143F80C70A7F1E2
:102130001027A7F1EF17CF6100B1C160586948615E
:102140009F698F6140B18161886900B1416101205F
:102150001961C3E90120CAE7E960F5E70023B3E7A5
:102160009F68002FB4D0012003F080FB8C1E00205C
:1021700055AA00FF70B50546002840D03B4E336895
:10218000002B3CD0B268002A39D0834203D8726851
:102190001344984202D3012003F068FBA0F120040D
:1021A0002046FEF7E1FD0028F5D155F8183C012B3B
:1021B000F1D155F8143C45F8180C0BB39A68FAB9EC
:1021C00055F81C2C02F120015A680A445A6055E95E
:1021D00005321A6155F8145C2B6903B1DD602022C9
:1021E0000021204604F051FE286908B183684BB3F2
:1021F00033699B0703D5FEF7D7FD0028CBD170BD0F
:1022000055F8100C00282AD0836843BB42686368E5
:1022100013442033636003692361D4E905239AB929
:10222000CBB9436963618269A261B3B19C61A3695F
:1022300003B15C61236903B1DC602022002104F05A
:1022400024FED5E72C46E1E79361A369002BE8D093
:1022500062695A61E5E7F360F7E7F460E7E7F3687E
:1022600045F8083C03B15C61F460C1E78C1E0020B6
:1022700030B50D46816887B0102302AA1039044694
:1022800003F0EAFB002802DA012007B030BD10227B
:10229000204602A903F0A4FD00283FD110222049C6
:1022A00002A804F007FE00280CBF012302232B70B4
:1022B000A1680123203921F00F0120460DF107020A
:1022C000203903F0C9FB0028DEDB9DF807302046EB
:1022D00003F00F021B096A702B7101220DF1070137
:1022E00003F07EFD10B96B78042B03D901236B70CA
:1022F00000232B71A2682046203A22F00F02103AE8
:10230000A91C03F07EFD0028BED1A2682046203A19
:1023100022F00F02E91C03F074FDB6E70323C6E7C1
:10232000EE8800001FB5074B6A461C6A1023A1689F
:102330002046103903F090FB002818BF00242046E7
:1023400004B010BD281E00202C232DE9F341204DA0
:102350000F4603FB0055D5F82080B8F1000F01D1DE
:1023600004F08BFDEB682E8940461E440423314661
:102370000DEB030203F070FB044620B1012420465C
:1023800002B0BDE8F08146F60813BDF804206D895F
:102390009A421AD1BDF806309D4201D00324EEE7DF
:1023A000042340460DEB0302A91903F055FB002856
:1023B000E4D146F60713BDF804209A42EED1BDF8E9
:1023C00006302B4433443B60D9E7002DF1D0E5E7DC
:1023D000281E0020F0B5214C0546266A85B0F0681D
:1023E00003F0EDFA4FF440735843B3685030834222
:1023F00001D204F042FD6979E46D012904BF4FF078
:10240000000C2746297918BF670001F1FF3118BF7A
:102410004FEA042C04FB01342B68241A6444013B6A
:10242000F06807FB034403F0CAFA0746304603F09E
:102430004BFB0F2201460DF1010004F026FD2B7924
:102440006A468DF8003021463B46304603F026FBB5
:10245000003818BF012005B0F0BD00BF281E0020C5
:1024600000222DE9F04F8FB00446CDE9082203F099
:102470002CFA464D002839D0454E2B68B34206D180
:10248000104609A9FFF760FF08B104F0F6FCEB6AFB
:10249000B34205D1012008A9FFF756FF0028F4D167
:1024A000DDE90832934288BF0993099BA3604FF08E
:1024B00000086B6A099AD3F8049043464B449A4249
:1024C000464608F10108F9D8204603F0FEF910B39A
:1024D0004FF440720021EB6D534303F15002AB6A9D
:1024E000013B494491420ED2013BFAE7FFF71AFF44
:1024F0000028CAD004F1080103F0C4FA0028C4D1AE
:10250000A3680993D3E7434505D80123E37100206D
:102510000FB0BDE8F08FD5F820A0BAF1000FB4D00D
:10252000D5F84CB0BBF1000FAFD06368194A03F087
:10253000FF23934221D12368012B1ED158460AA9BB
:10254000FFF796FE0028A0D19DF82830032B14D168
:102550005846FFF7E3F9002897D1584603F03BFFB0
:10256000002892D15846A16803F026FF00288CD19C
:102570005846FEF775FA002887D16379012B40F0A1
:102580008F80B31C4746069385E000BF281E0020BD
:102590003DB8F396000100042368069AD21ABA42A5
:1025A00078D3734A012B526A079352F83710166892
:1025B00002EBC70252F8082C0391A2EB0602A1EB32
:1025C00006010491059243D1E268022A3AD05046AE
:1025D000FFF7A4F900287FF458AF654A0CA9D06C26
:1025E000FFF746FE00287FF450AFE279012A12D0AF
:1025F0000E2A3FF64AAF8DF82820DAF80810504628
:10260000203921F00F01079B0AAA203903F0A7FE09
:1026100000287FF43AAF9DF83330012B05D15046A6
:1026200003F0D9FE00287FF430AF5046A16803F0D4
:10263000C3FE00287FF429AF5046FEF711FA0028A8
:102640007FF423AF5846FFF769F900287FF41DAFE8
:10265000DAF80830049A9A42BFF417AF1E44039B7D
:10266000F61AB1453FF611AF134651465046059A4A
:10267000CDF80090FFF724F900287FF406AF20463C
:10268000FFF7A8FE23680133236018B1394A1368A5
:1026900001331360013F002F7FF47EAF01232360DD
:1026A00002230126637146453FF631AF2368B342EA
:1026B0005CD86A6AF30052F83610083B1768069136
:1026C000D1582A6DD358049313680593DDE9043279
:1026D0009B1A03932379012B46D1DAF80820CB1BF0
:1026E0009342BFF4D2AE3A44521A91453FF6CDAE72
:1026F00051465846039ACDF80090FFF7E1F80028BC
:102700007FF4C3AE2046FFF765FE0223237118B1A4
:10271000184A136801331360DBF80830039A9A42B1
:10272000BFF4B3AE059A1A441346049A9B1A99450E
:102730003FF6ABAE069A59465046039BCDF8009043
:10274000D21BFFF7BDF800287FF49FAE2046FFF7AD
:1027500041FE2368013323600123237130B1054A10
:1027600013680133136001E0022BD5D001369AE7DC
:10277000281E0020A40700202DE9F743DFF8D4909D
:1027800007460E46C84641B10024304603F09DF886
:1027900028B123461C46002124E00B46FAE7FFF748
:1027A000C1FD20B101A903F06DF9054638B1012042
:1027B000012C01D107B9002003B0BDE8F083D8F89F
:1027C0002430019A596803460B449A4205F10105E9
:1027D000FAD87379012B0CD1E4B932682346AA42A6
:1027E00098BF21462C2202FB0383186AB0B904F07B
:1027F00044FB022BCDD13368012B04D9AB42C8D89E
:1028000084F00103C7E7C4D134B13379023B18BF68
:102810000123C0E72346BEE72346E3E720234A46D9
:1028200003F01AF90028C2D12EB9012CC3D001231C
:1028300009F12C09AEE7D9F80020074B9A4205D1DF
:10284000012CB8D0012409F12C099EE74FF0FF308C
:10285000AEE700BF281E00203DB8F3962DE9F743F0
:102860000221E420FDF770FF844B854CD3F8182734
:1028700022F44032C3F818272278002A73D1D3F803
:10288000101521F00201C3F81015D3F8101541F00E
:102890000101C3F810150521C3F8A4160421C3F8DB
:1028A000AC160723672101F001000244013BD2B2BC
:1028B0004FEA5101F7D1052A5AD119464FF0010CC0
:1028C0006F4E00256720CFB204E00CFA02F220EA36
:1028D0000200013590FAA0F25FFA85FEBE45B2FA19
:1028E00082F2F2D3013132750529224482F8547004
:1028F00006F10C06E5D10121002562489A0801FA8B
:1029000002F212F0670F18BF1D500433302BF5D1BF
:10291000E420FDF7F9FE594B5B49D3F8102503F588
:10292000C07322F00202C3F8902340F6FF72C3F88E
:10293000A82100221A60A3F5807004338B42026044
:10294000F8D101274D4D514E2F663068504BB0FBEA
:10295000F3F05D2358434F4B3B4398472770D5F81E
:1029600010359F0707D56FF0770003B0BDE8F083FF
:102970006FF08B00F9E7D5F8103543F00203C5F886
:102980001035D5F8482712F0010202BFD5F84837B4
:1029900043F00103C5F84837384BD3F84017D3F854
:1029A00044174800F9D42AB9D3F8482722F0010285
:1029B000C3F84827364A3368B3FBF2F32F4A03EBD8
:1029C0004313002B56D0D2F84017D2F844174900D1
:1029D00017D44FF0FF350195EFF31186202383F3D1
:1029E0001288BFF36F8F019B626801A813400193A7
:1029F00003F0FFFC002806DA86F31188BFF36F8F1F
:102A0000B3E7013BDDE70122636802FA00F123EA44
:102A100001036360204B187286F31188BFF36F8F38
:102A20006FF040411F7AA36802FA07F633431B4850
:102A3000A360D0E90089454571EB090CF9D3184929
:102A400028F01F02C1E900294FF0FF304FF0FF319D
:102A50000C22144BC3E900010020E31993F8543011
:102A600002FB0343104A1861DA601F75034BC3F879
:102A700024637AE76FF0730077E700BF00200E5001
:102A8000A000002000210E50B0210E507C0200203A
:102A900040420F00707100006002002040270E507D
:102AA0006003002058030020791200002DE9F04156
:102AB000456801F01F04287C88B044EA4014A868E7
:102AC000002800F0BB80B2F5001F06D1214603F0BC
:102AD0004CFA002008B0BDE8F08168686E7CB2F561
:102AE000800F46624FF0000603A80396466065D14A
:102AF000B3F1007F14BF052304238DF80C300023AD
:102B0000CDE906030593EB680DF10706CB4013F002
:102B1000010F5ED1B2F1A07F5BD102A80294FDF754
:102B2000ADFC029B203350F82330DA0751D4AF6854
:102B300032462146384603F03EFA16300AD197F85D
:102B40007500404B03EB800003F053FC0028C1DB11
:102B50008DF8070004962146A86805AA03F063FCD7
:102B60000028B7DBAD682146284603F0BEF9804651
:102B70002046FEF727F82F6800F10806B8F1000F8D
:102B800039D0284603F0BCF9002834D105EB4606BD
:102B9000B3885B0B990001F58072B850BA582A6867
:102BA0000A44D2F8101541F00101C2F810150122B3
:102BB000296802FA03F3C1F814338AE7B3F1C06F4E
:102BC00005D0B3F1007F14BF0123022395E703234F
:102BD00093E7AF6832462146384603F0ECF9002807
:102BE000B9D197F87500174B9DF8071003EB8000DB
:102BF00003F026F9AFE7D7F8143305EB46059B033E
:102C00005CBF4FF40033C7F81433AB88C3F38203BF
:102C1000042B0FD0052B0FD002A80294FDF72EFC39
:102C2000029BC168D94001F001010231204603F046
:102C300049F94EE70321F9E70221F7E76FF0850034
:102C400048E700BF740200202DE9F04FD50640F29E
:102C5000063548BF4FF00309D0F8048002EA0505A5
:102C600098F8103058BFC2F3401989B001F01F0620
:102C7000B5F5837F144646EA43168DF80A9044D092
:102C80000DD8062D43D005D8A5B1022D12D06FF076
:102C9000150037E0B5F5807FF9D101250AE040F253
:102CA00002239D4235D0B5F5407F34D0B5F5007F85
:102CB000EDD104250123200303FA01F12DD5D8F825
:102CC00004305960D8F808706FBB05A80596FDF769
:102CD000D5FB059B84F4803100EB8300D0F8802085
:102CE000C1F30041C4F3404343EA410322F470625C
:102CF00043EA890322F00F0243EA05231343C0F895
:102D00008030002009B0BDE8F08F0925D2E7082502
:102D1000D0E70625CEE70525CCE7620344BFD8F807
:102D200004309960CEE7314638460DF10B0203F0CE
:102D300042F914F44039019031D13046FDF742FF99
:102D400004B207EB4404A38ADB0719D5384603F025
:102D50000CF93146384603F0C8F840B1A28A3B6806
:102D6000520B03EB8203C3F81095C3F81095384655
:102D7000314603F0D0F800233046A382FDF78EFBE6
:102D8000019B002BBDD1D8F808309DF80B1093F8AB
:102D90007500314B03EB800003F052F8B1E70023DC
:102DA00003AACDE90623384605AACDE903330593E6
:102DB00003F039FB0028A4DB14F40033D8F80890A2
:102DC0003CD014F4803430460CBF4FF0010A4FF071
:102DD000000AFDF7F7FE3146074648469DF80AB05F
:102DE00003F08EF820B9484603F07FF8002888D118
:102DF0003FB209EB4707BB8A13F01C0F02D0002C2F
:102E00003FF47FAF05A80596FDF738FB059B00EB67
:102E10008300D0F8803023F4706323F00F0343EA7B
:102E20008B0343EA4A0343EA052343F00103C0F856
:102E30008030BB8A43F00303BB82A1E7CDE90633B0
:102E400031460DF10A03484605AA059303F0EBFA53
:102E50000028FFF656AF93E774020020F8B5464C01
:102E6000D4F80453E90408D5D4F830312BB1002349
:102E7000C4F83031D4F830219847AA0408D5D4F8E2
:102E800034312BB10020C4F83401D4F834318047F8
:102E900015F4804F384C09D0D4F8383133B10023C1
:102EA0000120C4F83831D4F8382198470126D4F8E5
:102EB0000C33324D304C03F0710343B901252E4CD5
:102EC0002F4ED4F80C3303F00C035BBBF8BDB3FA00
:102ED00083F30021C3F11F039A0002F5807292B2BE
:102EE00002F1A04202F58712116006FA03F7042BE3
:102EF0001268D8B2C4F8087308D0062B10D02B681B
:102F00009847D4F80C3303F07103D6E702236B71B2
:102F1000C4F81411D4F814312023C4F80433EEE7B4
:102F20006971ECE7B3FA83F30027C3F11F039A003A
:102F300002F5807292B202F1A04202F58712176088
:102F400005FA03F1022B1268D8B2C4F8081310D1A5
:102F5000D4F84C34D4F84C349B070AD10423C4F879
:102F60004054C4F804332561D4F80C3303F00C0347
:102F7000ABE733689847F7E700E01050C01E002029
:102F80001C1F0020F7B5284B284CD3F82C6304F104
:102F900088070EB903B0F0BD96FAA6F00123B0FA87
:102FA00080F08340DA43224926EA0306231893F887
:102FB0005450830019440C2303FB0543DB6873B3AF
:102FC000D7E8EF3F03EA020CC7E8EECFBEF1000FEF
:102FD000F6D1C340DB0719D5020102F1A04202F588
:102FE0006222D2F82435D2F82025D1F800C0BCF1F5
:102FF000000FCED04FF0000CC1F800C00C2101FB37
:10300000054529690091E9688847C2E705F10C0385
:1030100004EBC30C54F83320DCF80430E5E70A680D
:10302000002AB6D00B60B4E700200E50A0000020AC
:1030300000210E5038B50B4C0546236833B980216A
:10304000094802F0EDFA50B92023236000202368DC
:10305000054A013B52F8232023602A6038BD022034
:10306000FCE700BF28080020A807002070B588B042
:1030700001AE182205460C463046002103F005FF3C
:10308000012044EA05240794059002F065FBBA2369
:1030900009480A49C0F80035C0F80465FDF7E2FEAA
:1030A0000446002002F058FB002C0CBF20466FF0B5
:1030B000920008B070BD00BF005004500051045091
:1030C00010B50446012002F047FB064B0649C3F841
:1030D00000450648FDF7C6FE0446002002F03CFB12
:1030E000204610BD005004500851045008500450B0
:1030F000002310B50B4A147884420AD00133092BFF
:1031000002F11002F7D16FF0010010BD00200A603B
:10311000FBE7D06802F094FC0028F7D16FF01200B2
:10312000F3E700BFBC72000030B585B069460320EC
:1031300003F0B6FA00283BD1062002A903F0B0FA4A
:10314000012833D103238DF808308DF80B3000218E
:103150009DF800009DF80840214B1A78042A05D0FC
:10316000052A27D1421E18BF012292B35A78042A99
:1031700005D0052A25D1621E18BF01224AB39A78CC
:10318000042A03D09DF80350954222D1DA78042A0C
:1031900003D09DF80B5095421BD11A79042A14D103
:1031A0005879831E022B03D805B030BD0028CED03D
:1031B000FF20F9E7A2EB000CDCF1000242EB0C026D
:1031C000D3E7151B6A426A41D8E79DF80250954241
:1031D000E6D00131032903F10603BED10120E3E764
:1031E0006F8A000030B5394B0C465B6800218BB00C
:1031F000C3F3080381F31188BFF36F8F02F07F459B
:10320000B5F17F4F08D102F00C05082D04D012F063
:10321000080F0CBF014621460022033B8DF8072012
:10322000032B03D8DFE803F00A474B4400209DF846
:103230000730002B47D102A902F04DFC234BDA6A7C
:103240009007F3D4DA6A002AF0DBDA6A5200EDD58F
:103250005A69886942F480725A61BFF34F8FBFF395
:103260006F8F5A6930F8020C22F480725A61BFF3F2
:103270004F8FBFF36F8F4DF60272904208D09A6A5B
:10328000D2B23AB101200DF10701FEF7DDFACEE727
:103290000868CCE79A6A12F47F4F05D001200DF13F
:1032A0000701FEF79DFAC2E79B6AB3F5803FBDD3E5
:1032B000FEF768FABBE700200DF10701E5E7002003
:1032C0000DF10701EDE70BB030BD00BF00ED00E0F0
:1032D00010B572B6002484F31388FDF703FA234671
:1032E0004FF0FF300C4A03F120010133102B42F85C
:1032F0002100F8D100234FF0FF30074A03F16001AD
:103300000133102B42F82100F8D162B6BFF34F8F82
:10331000BFF36F8F10BD00BF00E100E08FB5984A8A
:10332000984B22F07F029A60BFF34F8FBFF36F8FED
:10333000D3F88820944822F47002C3F88820934A76
:103340000021121A03F0A1FD9148924A9249121AE3
:1033500003F0A3FD9148924A9249121A03F09DFD91
:1033600040F20F14002210B201210132FDF7ECF9F6
:10337000A242F8D10020FDF75BFC8B4B03F5006205
:1033800082F3088883F30A88E0227E4B874F83F814
:1033900022200022DA771A765A769A7683F820204D
:1033A000596A41F4E021596283F82320596941F0B8
:1033B00010015961596941F480615961596921F0DD
:1033C00008015961102119614FF0FF319962D962EA
:1033D000D3F89010090A11F0FE0F29D0BFF35F8FC8
:1033E0007349C3F89420C3F8C01002217148C3F890
:1033F0009820C3F89C10C3F8A0000120C3F89800DF
:1034000000F10050C3F89C0000F53B3000F2E230C0
:10341000C3F8A0003970D3F89000C0F307208142B0
:1034200011DB0522C3F89420BFF34F8FBFF36F8FDA
:1034300061493C784D68002D00F081801F2D1ED819
:103440006FF015047BE0C3F89810C3F8A020013199
:10345000E1E72046C3F89880D3F89C2025F01F05AB
:1034600002F01F021543C3F89C5002F063FB62E0B8
:103470004E45EED15FFA88F002F05CFB5FE0EA06B1
:10348000DED10A68D306DBD1104602F04AFB1544B0
:1034900005F1FF398046484602F043FB8045CFD115
:1034A00018F1160FCCD0A045CADA364BC3F8988075
:1034B000D3F89C00C3F89880D3F8A06020F01F00D8
:1034C000824246F01F06D3D0013AC3F8988022F01A
:1034D0001F00D3F8A0204E4502F01F0242EA00026E
:1034E000C3F8A0202046C0D002F024FB10F1160F34
:1034F000A6D0244B013EC3F89880D3F89C109DF8C9
:103500000820013061F304028DF80820D3F8A030C0
:10351000009525F01F052E445B08D2B2A6EB0906E4
:1035200063F3471226F01F066946C0B28DF80820E3
:103530000396FDF729F910F1160F81D0441C0120E4
:103540003C70FDF775FB0220FDF772FB002383F34F
:103550000B881A4C1A4DA4F5205686F30B8884F379
:103560000988002004498847184619461A46A84782
:1035700002488047FEE700002F6700003D6700001B
:103580000000000000ED00E0000300206C28002097
:10359000A00000200003002098930000600000209D
:1035A000A0000020589300007050002069280020DF
:1035B000AAFF4400E14F1600F4860000705000207E
:1035C000F147000008B501233F4A4048C2F80038DF
:1035D0003F4AD2F840231C2A04BF3E4AC2F80C34AA
:1035E000FDF770FA0830FDF76DFA0830FDF76AFA5A
:1035F0000830FDF767FA00F5F470FDF763FA364A14
:10360000D2F88C3043F44063C2F88C300022D300EF
:1036100003F57F0303F54043D3F8001401310AD0CA
:10362000D3F8001439B1D3F800140132D3F80434BC
:10363000402A0B60EBD1244BD3F84024002A3ED023
:10364000FDF730FA48B1224BD3F83423234B9A428A
:103650009EBF1D4B224AC3F84026FDF723FA18B13E
:10366000204B214AC3F8AC27FDF71CFA48B134229D
:10367000154BC3F82426D3F83C2622F40022C3F8C5
:103680003C261A4BD3F80026D20744BF6FF0010244
:10369000C3F80026164BD3F8182522F00302C3F80E
:1036A0001825D3F8182542F00302C3F818250A4A52
:1036B000D2F88C3043F44063C2F88C3008BDC82285
:1036C000C3F84024BCE700BF0000125000C50D50F5
:1036D00000C0FF000030055000ED00E0001D0A189A
:1036E00040E0A91E00A0085078000A0400E0105035
:1036F00000B00450074A1368591C11604BB9064AC0
:103700004820D2F8003443F00703C2F80034FCF735
:10371000FBBF70472C0800200080045010B5124BEE
:103720001C68013C1C60ECB94820FCF7FBFF072239
:103730000E4BC3F80823D3F8002422F00702C3F885
:103740000024C3F80041D3F80021C3F80441D3F8A2
:1037500004214FF48072C3F80841D3F80831044BB8
:10376000C3F8882110BD00BF2C0800200080045041
:1037700000E100E038B5044602F09CF825688DB9F8
:103780004FF412722946201D03F07FFB084B284698
:103790006360012384F848328023C4F8C4310523D0
:1037A000236038BD204602F0F3FF6FF08800F8E791
:1037B0000C8700002DE9F04FB04D91B06A782B785E
:1037C000022A01D1072B22D013F0010409D1DFF81E
:1037D000B0B2AC49DBF800208A421DD143F00103AE
:1037E0002B702B789F0706D40121A74A43F00203D0
:1037F00082F880152B706A782B781AB9DE0744BFDF
:1038000002226A705C075CBF43F004032B70002443
:10381000204611B0BDE8F08FFFF76CFF9B4B0121F4
:103820001C609B4B48201C609A4AFCF78DFF9A4B0A
:103830009A4952F8040B43F8040B8B42F9D1984C87
:10384000984B2461236003F5C0436360FDF744FC9B
:1038500060B3236DF820B3F5007FCCBF4FF48063D5
:103860004FF40073A36002F0E7FB28B9F92002F0DF
:10387000E3FB002800F0F88008AF2021384601F073
:10388000CFFE044600285BD14FF4807301AE304672
:10389000019302F087F8DDF8048002F07FFE044611
:1038A00088B12021384602F067FF49E00E2002F07F
:1038B00098FE0446FFF732FF002C43D1714BCBF842
:1038C00000302B788AE718F00303009040F0CF8097
:1038D0001A46184619464FF0010E734C54F804CBA3
:1038E00018EA0C0F07D00EFA02F00143012001F094
:1038F0007F0143EA0C030132072AEFD128B19DF87A
:10390000032061F347028DF8032038EA030340F0F7
:10391000B180BDF80230F82023F4F87343F0C003FF
:10392000ADF8023002F088FB20B1F92002F084FBF0
:10393000002838D12021384602F01EFF6FF08A049B
:10394000FFF7ECFE2B78580743F0010244BF23F049
:10395000040343F0010291072A7017D54A4E20272D
:10396000B0464FF0010A4FF003093046C6F820A0D8
:1039700086F81C9002F078FC013F06F12C06F4D189
:103980002B7888F8807523F002032B700023042124
:1039900046486B70FDF726FA2B78DA0744BF23F010
:1039A00001032B7034E70221F820FFF75FFB044688
:1039B00000287FF476AF4FF0010A3D4BCDF814A0FC
:1039C0000693009BDFF8EC80079397E80F0086E8EA
:1039D0000F00504601F0C0FEF8234046C8F80035FD
:1039E0003549C8F80465FDF73DFA8146204601F0E7
:1039F000B3FEB9F1000F21D11C21304602F0BCFE0C
:103A00004FF0FF33DFF8B4C0CDF814A0CDE906C302
:103A100010AB13E90F0086E80F00504601F09CFE42
:103A2000F9234046C8F800352349C8F80465FDF776
:103A300019FA0446484601F08FFE44B102F0AEFD8B
:103A40002021384602F098FE6FF0920478E7304665
:103A50001C2102F091FEBA20FFF732FB0028EFD1C3
:103A60002021384602F088FEFDF77AFA21E76FF050
:103A7000860416E76FF0850413E700BF200E0020D0
:103A800050020020117365009C0800206C03002088
:103A9000680300206C73000000C080511CD380516B
:103AA000300800200020805188860000240E00206D
:103AB0004000815100500450005104505000815189
:103AC00060292DE9F04104460E462FD803780333D0
:103AD00003F00303012B21D86FF0210002F081FDD8
:103AE000054640B913493246204603F0D6F9602115
:103AF000104802F041FE2846BDE8F0816378384660
:103B00002B44C8F80035FDF7ADF968B901352378C5
:103B1000C3F382039D42F1D30020DFE70025DFF8E5
:103B200018800649064FF2E70220D7E76FF08905B3
:103B3000E1E700BF00000020005004500451045091
:103B4000045004502DE9F04389461D4676495368D8
:103B500085B0B1EB132F1446DDE90C7806464FEA29
:103B6000132203D0714B9A4240F0D880704BF31867
:103B700069F10002032B72F10002C0F0D2803046DE
:103B800001A902F0D1FB002840F0B080B6F1F803A3
:103B900049F1FF39022B79F10009C0F0AA8002F047
:103BA000FDFC002840F0A2809DF8049019F00F025F
:103BB00040F0A280BDF80630C3F3C113013BDBB275
:103BC000022B00F29C805B4909F03009C95C5A4B1A
:103BD000B9F1100F43EA010363603AD1574B2360F8
:103BE000204602A9FDF77CF900287FD1029B9F4265
:103BF000C0F0918044F2121221880198914204BFD2
:103C0000042205F8012BC8F800309DF804302A780A
:103C1000C3F3011363F301022A70214603AA08BF0C
:103C200007F1FF3702F04BFA00285FD12B78039A97
:103C30006E7062F384032B70238803F44F42B2F555
:103C4000824F50D13946284605B0BDE8F043FFF712
:103C500037BF9DF8071013461046394A4FEA510CFA
:103C6000BCF1000F21D1039003A801F09BFE019B42
:103C7000039AC3F38533282BA26046D112F4A05FC8
:103C800047F2421244F2421318BF134623802D4BD1
:103C9000E3609DF80630C3F30213013B052B37D8D0
:103CA000DFE803F01F0F1719361C1CF0010F04D0BA
:103CB000062B27D852F8231008434FEA5C0C013337
:103CC000CEE7C0236380B9F1000F89D16FF0960071
:103CD0000CE0FF23F6E74FF48073F3E74FF4C07373
:103CE000F0E78023EEE7B3F5885FABD005B0BDE821
:103CF000F0836FF08600F9E76FF08800F6E76FF069
:103D00009100F3E76FF08300F0E76FF09200EDE7CA
:103D10006FF09800EAE76FF08900E7E76FF08B003B
:103D2000E4E76FF08500E1E7004E80004B4E800035
:103D3000FF3F0080818A0000004B4E80011080010F
:103D400088860000000800060023F0B50F460B60CF
:103D50007749054691F880258DB0002A00F0E28071
:103D600000F140421F2A69D82C2303FB02110B7F6C
:103D7000022B58D039460020FDF780FE044600286B
:103D800072D101223B6801465D613B6805A85A601B
:103D90003D681C2203F079F86E69664A06F14043DB
:103DA000A3F580539342CDE9024400F2B280624B06
:103DB0009E425CD001339E4259D0023B9E4256D077
:103DC000F6B2304604A902F0AFFA044600287BD1CF
:103DD000BDF81230C3F3C113013BDBB2022B00F27A
:103DE0009280564AD25C564B13436A69069313F08D
:103DF000FF030A9200D00A9B0A930023304619461B
:103E0000CDE9003305AAFFF79DFE10F18A0F0446A5
:103E100031D03868002C57D102F026FA6FF09604A2
:103E200000233B6020E04B699842A3D1084602F092
:103E3000F6F80446A8B93960002415E0002874DDBE
:103E40000A46107F022802D15069854205D001330D
:103E5000202B02F12C02F4D18CE72C2202FB03115F
:103E6000E4E710F18C0F85D020460DB0F0BD354B46
:103E70000A960693BFE7069B33491A0AB1EB132F44
:103E800002D0324B9A423ED102A905A8FDF728F88C
:103E90000446C8B928460299FCF7BCFF044698B905
:103EA00003AB0193AB6A2146009330466B6A05AAC7
:103EB000FFF748FE044670B1686A10B1A96AFCF7C2
:103EC0009BFF0023C5E90933386802F0CDF914F1EE
:103ED0008C0FA5D120E0039B05ACAB620FCC0FC5C6
:103EE00094E8070085E807003868083001F05AFDBB
:103EF0003B681A7F012A12D0386802F090F8044615
:103F0000002899D08CE7386802F0AEF96FF086048B
:103F100086E7284602F0A8F96FF0870480E70222BE
:103F20001A77E9E76FF088049EE76FF087049BE754
:103F30009C080020FFDFFF3F02C0FF7F818A000056
:103F4000004B4E8003004E80004E80004B4E8000A0
:103F50002DE9F0430446002693B00DF11F05DFF86C
:103F6000788025F01F05102201231C4911F8010D4E
:103F7000013A03440B704FEA1323F7D1A81901F05B
:103F8000F7FAA946074618BBD8E90C3210360133B8
:103F900042F10002302EC8E90C32E4D154B104F1F0
:103FA000300299F8003014F8011B4B40A24209F886
:103FB000013BF6D12E46084C0FCE0FC496E80F00F9
:103FC000203584E80F0095E80F00103484E80F00D6
:103FD000384613B0BDE8F083080300203803002002
:103FE00038B52B4B1B7843B12A4B1A68002A41D0B5
:103FF0001A6819680021196032B9BFF35F8F4FF05A
:10400000A3439A6ABFF35F8FBFF35F8F4FF0A34460
:10401000E36BBFF35F8F12F0240F03F023032BD069
:10402000BFF35F8FE569BFF35F8FBFF35F8F10232F
:104030006363BFF35F8F184B1868184BB0FBF3F046
:10404000174B43F001039847BFF35F8F002363636F
:10405000BFF35F8FBFF35F8FE36BBFF35F8F5B06D1
:10406000F8D425B1BFF35F8FE561BFF35F8F6FF0C9
:104070001F0038BD20BFB8E74FF0FF30002BF8D14C
:10408000BFF35F8F2063BFF35F8F1846F1E700BF78
:10409000682800206C0300207C02002040420F00B2
:1040A000507100002DE9F04F06460024ADF54D7D1E
:1040B00039A80F46FFF75EFB33897289D6F80C806A
:1040C0001344DFF8C4919844A04500F2A58019A9D3
:1040D00039A802F0DDFB39A802F05AFB002F00F0EE
:1040E000AC80F368348938461C442146042339AA3D
:1040F00001F0B2FC0490002840F09F8046F60812C0
:10410000BDF8E4107389914240F0A580BDF8E61037
:10411000994240F092800423384639AA214401F0A4
:104120009BFC002840F0898046F60713BDF8E42088
:104130009A4240F082807389544823440293029A41
:10414000BDF8E630C16D13440593436A5A684FF4D5
:10415000407303FB012153424F311940836A406D84
:10416000013B534342435B1A521A934228BF134602
:10417000059A9A4261D84FF0FF39C8460434059B2E
:10418000A34240F2CD8273891BB1029BA34208BFB8
:104190001C1D04232146384639AA01F05DFC002885
:1041A0004BD1029A211D8A42BDF8E430BDF8E65099
:1041B00008D84FF6FF7C364830F8022B62453CD0D9
:1041C0009A42F9D1122B4AD0242B65D0012B58D119
:1041D000402D32D82B46384609AA01F03DFC60BB81
:1041E00039A8FFF7C7FA2C222A4939A802F086FB22
:1041F00029A939A802F04CFB39A802F0C9FA2A46CD
:1042000009A929A802F056FEB0F1000918BF4FF025
:104210000109C9F1000934E0A8EB0405B5F5807F78
:1042200028BF4FF480754A462B462146384601F098
:1042300013FC48B139A802F0ABFA4FF0FF38404602
:104240000DF54D7DBDE8F08F2A46494639A802F0AC
:1042500055FB2C4438E7002B3FF466AFEDE7402DCB
:10426000EBD12B46384609AA01F0F6FB0028E4D131
:104270002A4609A919A802F01DFE0028DDD1012354
:10428000049304352C447AE7681F0020281E002080
:10429000D0880000FE880000B9F1000FF1D1402D58
:1042A000CBD12B46384609AA01F0D6FB0028C4D151
:1042B00098493023069107AA2C3106A801F05EFB2D
:1042C000002840F0A080DDE9062302EB030A5146F6
:1042D000302308AA06A801F051FB002840F0938083
:1042E000069BAAEB0302002A40F38D801A7806A8E9
:1042F0002992089A03EB020B594606232AAA01F0D9
:104300003DFB00287FD1DDF81890DDF8A880CDF8BE
:10431000AC9009EB08039B45069362D10C2139A8A8
:10432000FCF760FDB8F1030F6DD1424648467A496B
:1043300002F0C0FD002866D14346514607AA06A8F0
:1043400001F01CFB00285ED1079B002B5BD0DDF841
:10435000188003F1FF3B98F80010CDF81CB000293D
:1043600051D1434408F101099A45CDF818904AD13A
:10437000BBF1200F47D11C2239A8039102F085FD23
:10438000FFF718FA00283ED144F24213ADF8E430AA
:104390004FF4006329A8299301F004FB5F4B0068E8
:1043A00003993C93BDF8E630CDE9071B3B900BB178
:1043B000FF2B28D108F1200218F801CF904541EADF
:1043C0000C01F9D1F9B19DF8E8A03E9ABAF1000FBD
:1043D0001ED0BAF1FF0F77D10798A0B101F044FFCA
:1043E00011E019F808200133399259463AAA06A873
:1043F000069301F077FA30B9069B3A9A3B9313443F
:104400009B4506938ED04FF0FF384FF0FF3938E7C9
:1044100020F0031020F47F401043DDD14FF6F872F6
:104420009342D9D829A807A9FDF728FB03900028B3
:10443000D2D1DDF81C800DF1E40EC446BEE80F00B9
:10444000ACE80F009EE807008CE80700BAF1000F07
:1044500002D1299BC8F81430D8F828203A9B002AAA
:1044600040D04246B8F802303A98DFF8B4C02993F9
:10447000BCEB102F0DF1A40AD8F824B052F8283F55
:104480004FEA102100F0FA802648814200F0F680C1
:104490000029A1D1CDE9002A49465A4639A802F09F
:1044A000DBFB10F1860F40F0F180BDF8E43003F43F
:1044B000E042B2F5805F37D0B2F5005F8CD14FF4A7
:1044C0008073CAF8003087E7002A85DD20F00310EA
:1044D00020F47F4000287FF47FAF4FF6F8729342BC
:1044E000A1D979E71B0A06D140460899FCF792FC4E
:1044F0000028B6D070E70892094A934203D04B32A5
:1045000093427FF469AF08A939A8FCF7E9FC0028B9
:10451000EAD061E7FE8800006B8A00000008000610
:10452000004E80004B4E80004FF48072CAF800208D
:1045300041F2062293423FF64FAFB3F5905F80F011
:10454000938041F20102934203D0B3F5885F7FF478
:1045500043AF09F1200359F8042B99454BF8042B7C
:10456000F9D12023C8F82830B8F80220299B002A66
:1045700040F09080A8F802304FF6F873299A9A42DA
:104580003FF62AAFBDF8E43023B1B8F800209A42D4
:104590007FF422AFBDF8E63023B1B8F802209A428A
:1045A0007FF41AAF98F81CB0D8F81490BBF1010F43
:1045B0007FF412AF0223484688F81C3029A9FFF780
:1045C000C3FB00286AD0B9F1000F3FF41CAF484686
:1045D00007A9FFF7B9FB002842D1DDF81C8098F845
:1045E0001C30022B39D10323D8F8040088F81C3082
:1045F000C1B2FF2931D0D8F81420DFF830C102F160
:104600004043A3F58053634527D8494BB3EB102FA4
:1046100023D1032921D05FFA82F9484629A901F064
:1046200083FED0B94146299808AA01F048FDA0B9F7
:104630008346404A4049DDF820A0D34563D3FCF7C8
:104640008FFC18B960213D4802F096F85146484663
:10465000FEF70CFD08B901F0A1FF404601F024FE71
:10466000039B03F1FF38D0E66922A3F590539BB278
:1046700022FA03F3DA077FF5AFAE6AE729A9CDE99D
:10468000002139A85A46494602F0E6FA00283FF4CC
:104690006BAFA1E69A427FF49FAE6DE7DDF8A48090
:1046A000D8F80830B8F800A01B050DD55A4650467A
:1046B000D8F80C1001F048F850B95A465046D8F8CE
:1046C000101001F041F818B9404601F0EDFD7AE70D
:1046D00009AB0093D8E90912404619AB00F022FF5C
:1046E0008246404601F0E0FD8046BAF1000F7FF4BB
:1046F0006AAF00287FF467AFB9F1000F3FF485AED1
:104700000123039363E70BEB0900C2F800050C4893
:10471000FCF7A8FB0028A0D1064A0BF1010B8AE7A1
:10472000049B002B7FF48BAD87E500BFFFDFFF3FCD
:104730004B4E8000005004500451045000000020F3
:10474000045004502DE9F8432C274743DFF89880A4
:10475000064608EB0704256A89460DB902F08DFB71
:1047600004222146284601F03BFB10B92069C3060C
:1047700015D58EB12846FDF7D1F899F80730042BEE
:1047800006D1D8F820000028E8D0FDF7C7F803E0EC
:10479000FEF7CAFC0428F4D00120BDE8F883216AA2
:1047A0000029DBD058F80720104B9A4208D0002E81
:1047B000F2D0002328461946AA6801F016FDEBE75F
:1047C000E26823899B18F2D26289D218EFD28B68F3
:1047D0009A42ECD240F60C631842E8D12046FFF72B
:1047E00061FC00B9D9E7E2E7281E00203DB8F39646
:1047F00001252DE98048A64B89B003201D70FCF7E8
:1048000017FA0420FCF714FAA24C6022002120467B
:1048100002F03BFB032004F12001FEF769FC0028B5
:1048200070D1062004F14C01FEF762FC002869D12A
:104830004FF48076984A032002F5006304A962626F
:104840002365049602F0CEFA28B1012384F858308B
:104850008DF817304DE1049B0620226D04A9A36258
:10486000049602F0BFFA00284ED084F85850002178
:104870000846FDF781FF0028E7D1A66A656DAE42C4
:1048800002D06B1C9E42E0D1B6F5807FDDD80023BC
:104890001F46626A216D043204319D423CD1236A75
:1048A000D86801F08CF8E36CD86801F088F8AE4263
:1048B00005D9636A03EBC5035B68BB42C5D101231D
:1048C000049303F10123059300236946206ACDE98F
:1048D0000633FDF7CDFCA8B9E06C02A9FDF7C8FCD2
:1048E00080B99DF800209DF80830012A1CD19DF860
:1048F0000220032A18D1012B16D00223266A07931F
:10490000002E3DD102F0B9FA049B6365236AD86892
:1049100001F055F8E065AAE752F8337051F833001A
:10492000874292D10133B8E70023079304A800F02F
:10493000CCFF80F0010004A9C0B2FDF71DFF0028E4
:1049400083D104A800F0C1FF002840F0A78004A88C
:10495000FDF786FD0028D5D19DF81730DA1E012A13
:1049600084F8583000F2868001F0ABFE9DF81730D5
:10497000002870D1023B022B74D994F858307CE0A7
:104980003378032B02D0062B7FF45FAFF0684FF42F
:104990004078E56D01F013F808FB00F0B76850307F
:1049A0008742AFD340F2FF235FFA85F94FF0FF351E
:1049B00003FB09773F1A01233946304602AA01F06A
:1049C0004BF80028C24608F1FF38FFF63EAF01223F
:1049D000304602A901F004FA18B9B5F1FF3F08BF4B
:1049E0005546A7EB0907B8F1000FE4D1691C07D0C1
:1049F000FF2D22DC40F2011301350495ADF814308F
:104A0000B1680123203921F00F01304602AA203974
:104A100001F022F800287FF418AF0122304602A9E5
:104A200001F0DEF910B101238DF808309DF808304F
:104A300003F00F038DF8173078E70223A5F5807592
:104A40008DF815306B1005F0010501330135049325
:104A50008DF81450D4E7FF22023B022B84F8582033
:104A60003FF650AF01F045FE002886D0FF2384F8C2
:104A7000583047E79A1E022AF4D9FF2B3FF442AF81
:104A800000210846FDF778FE00283FF4DEAE39E746
:104A900068280020281E0020280E00209DF817609E
:104AA000012E34D1FEF740FB831E022B054610D8A1
:104AB000304604A9FFF746FEA8B9E8B284F85800CA
:104AC0008DF81700012834D813D0FF2384F858300C
:104AD0000FE0C0B2042884F858008DF81700F1D90F
:104AE00005281ED0F1E7012816D184F858008DF86A
:104AF000170094F85830FF2B3FF404AF0021012B2E
:104B000002912DD00846FDF737FE48B3FEE701209D
:104B100004A9FFF717FE48B1052384F858308DF833
:104B2000173001F0CEFD0028E3D0CEE79DF8170046
:104B3000D0E704A8FDF794FC00287FF4E3AE94F8D6
:104B40005830DA1E012A08D801F0BBFD00288DD1AB
:104B500001F0CFFD002889D1CBE7022BC9D1F7E7BF
:104B600000210846FFF7EEFD00B1CFE7029B0133BD
:104B70000293DDF80880B8F1010F00D0FEE7236A48
:104B80005A687D4BD3F874150F2900D0FEE7D3F88F
:104B90006C150F29FAD101F5F91101F6F671C3F878
:104BA0006805C3F86C154FF4F841744FC3F87015DD
:104BB000B9467349734EC3F87415238959F8045FD5
:104BC00013443360ED4367230446DFF8BCA105F0CE
:104BD0006705CAF82833002D40F0AA80E420FBF7CF
:104BE000A1FD694BD3F8482722F00102C3F84827FA
:104BF000D3F8102522F00102C3F81025D3F81025B0
:104C000022F00202C3F8102501225A669A663D700E
:104C1000EFF31182202383F31288BFF36F8F5B4879
:104C2000818E01F00701022940F0A080C38E013B74
:104C30009BB2C386002B40F099801C30FBF744FCEC
:104C4000534B544A1B684FF47A70B3FBF2F34FF0A6
:104C5000000A5843504B4FF0FF3943F00103984787
:104C60004FF00108D3464D4F57F8044BC4F8089352
:104C7000C4F30830FBF756FD0021C4F82C80C4F8BB
:104C800050B1D4F85031C4F84CB1D4F84C31C4F818
:104C900024B1D4F82431C4F800B5D4F80436049310
:104CA000D4F80C360593D4F810360693D4F80836A9
:104CB0000793C4F80496C4F80C96C4F81096C4F888
:104CC000089604AC54F8040B431C01D0FBF7E6FB38
:104CD00001310429F6D10AF1010ABAF1030FC3D157
:104CE0004FF0FF312E4BC3F80813BFF36F8F72B62E
:104CF00000232C4A03F120000133102B42F820102E
:104D0000F8D14FF0FF3105F160030135102D42F865
:104D10002310F8D10024244BC3F80444FBF7E2FC31
:104D200084F30B8884F30A88204B30689847FEE7A9
:104D3000BB68E1B208FA01F202EA030010F0670F63
:104D40001CBF9343BB607B68DB4303F067031342E4
:104D500009D000220AEB0113C3F82C25EA0702D57B
:104D6000484601F06DF86D08013434E782F311888C
:104D7000BFF36F8F64E700BF00B00450A0000020B5
:104D800005301700881E002000200E50C81E00208D
:104D90007C02002040420F0060710000A4860000E9
:104DA00000E0105000E100E0002008E06100002079
:104DB000BFF35F8F094A1368BFF35F8F43F48071BD
:104DC000BFF35F8F1160BFF35F8F23F48073BFF376
:104DD0005F8F1360BFF35F8F704700BF001080517B
:104DE000BFF35F8F4FF0A3430022DA61BFF35F8F01
:104DF000BFF35F8F4FF0FF321A63BFF35F8FBFF3D4
:104E00005F8F3422DA61BFF35F8F0122014BC3F859
:104E10000423704700800450B1F5DE7F38B50446A6
:104E200024D303681D6815F0400522D1FEF762FC0B
:104E300001212176FFF7D4FF0F4B284663602368DA
:104E40000E4A1B68C4E90355A36204F12C032362D4
:104E500004F128036362E3671323C4E9212304F107
:104E60008C03E361064BA160636138BD6FF02200E3
:104E7000FBE76FF00200F8E75C730000040000201D
:104E8000AD0F00000368DA68D203FCD4DB68244865
:104E90001840B0F5806F2FD017D840282ED008D8F2
:104EA00010282DD020282DD0003818BF0120400018
:104EB0007047B0F5807F27D0B0F5007F26D08028DE
:104EC00008BF0B2018BF02207047B0F5804F1FD0DD
:104ED0000AD8B0F5805F1DD0B0F5005F1CD0B0F5EA
:104EE000006F08BF0620EDE7B0F5004F16D0B0F513
:104EF000803F08BF0320E5E7112070470A20704774
:104F00000C20704709207047082070470720704721
:104F10001420704705207047042070470F20704709
:104F2000F0FF010038B50025124B04461A680361F2
:104F300002605A6842609A6882600F4A9A66856485
:104F4000FEF7D8FB04220D4BC3F804230C4A236858
:104F5000D968C90307D403F580535B6A13F4A02F03
:104F600001D138BD20BF1368002BFBD01368136834
:104F70001560ECE7300800209C71000000800450B0
:104F800068030020042210B50446054BC3F808232B
:104F9000FEF7C4FB2369034A9A660023636410BDCD
:104FA000008004509C7100002DE9F0412026ADF5F1
:104FB000047D15AD05AF0390884601232846009770
:104FC00002AA03A9029600F0B3F90446F0B93B78AF
:104FD00023F007033B70FB7F03F07F0343F04003A4
:104FE000FB77AB1B013E1C70FBD12846FFF79AFFF5
:104FF0002B69324A28469A663149324603AB01F0A2
:1050000049FD044638B12846FFF7BCFF20460DF5A0
:10501000047DBDE8F08120223946039801F02CFD83
:10502000202204980DA901F027FD284601F004FE76
:10503000FFF728FF04460028E5D12B699A6ED5E9D1
:10504000013154681268D00002D5EA688A1A134404
:105050003CBBD5E905C30DAE03F1200E32461868FE
:105060005968083303C273451646F7D19CF80020EF
:1050700097F83F30284643EAC21387F83F30FFF7DE
:1050800081FF42460DAB1E4603CEAE42106051601A
:10509000334602F10802F6D14021384601F06CFB9C
:1050A000B4E7E20707D50B2E01D901F0E6FE05EBC8
:1050B0008602536101360B446410C9E78871000011
:1050C0004C730000F0B50388C66803F44F42B2F594
:1050D000824F08BF1C4603F4E04E1D4B18BF00244E
:1050E00000209C46E4B21D78A5421CD1D3E90257AA
:1050F0000A68BEF5804F08BF3D465F6812B9202D93
:1051000008BF0F600A6897420DD1202D02D06FF0C2
:105110008600F0BD142303FB00CC9CF8103043B98B
:105120006FF08500F5E70130132803F11403DAD19D
:10513000EDE7422C09D1074B9E4206D003F20B1338
:105140009E4202D00A339E42E1D10020E1E700BF37
:10515000508700000008000641281FD019D82228D7
:1051600009D8112817D91238C3B21548D84000F011
:105170000100873870472738C3B2092B0BD8114874
:10518000184100F00100C0F1FF2000F57F007A30E7
:105190007047422810D06FF086007047FF2907D073
:1051A000B1F5E07F0CBF6FF085006FF086007047AF
:1051B000054B002013607047FF29F1D1034BF8E73E
:1051C00021020100EEFDFFFF408700004C7300004C
:1051D0002DE9F04107463025514CDFF84881202D5C
:1051E0002E46A8BF2026FEF785FAFFF7E1FDBFF3A4
:1051F0005F8FE368BFF35F8F9B08013BBFF35F8F57
:10520000A360BFF35F8FBFF35F8F00232364BFF3FF
:105210005F8FBFF35F8FF1226264BFF35F8FBFF3D5
:105220005F8F4FF400726263BFF35F8FBFF35F8FD6
:10523000C4F80080BFF35F8F07E0FEF76FFA6FF0EE
:105240003F052846BDE8F0810123BFF35F8F226B45
:10525000BFF35F8F5108C2F34202052A5CD011F000
:10526000060FF2D023BBBFF35F8F6268BFF35F8F7F
:10527000032AEAD92C4B2D4ABFF35F8FD4F8801054
:10528000BFF35F8FBFF35F8F43F8041BBFF35F8FE4
:105290009342F1D1FFF78CFDBFF35F8F2368BFF31B
:1052A0005F8F43F00103BFF35F8F2360BFF35F8F16
:1052B0003246BFF35F8FA368BFF35F8F0133B6EB56
:1052C000031FBAD8BFF35F8F6368BFF35F8FB6EB7E
:1052D000830FB9D8BFF35F8FD4F88030BFF35F8FEF
:1052E0003946081D01F8013B81424FEA132302F1C0
:1052F000FF3208D0002AF5D1FEF710FAAD1B374473
:105300007FF46DAF9DE7002AF6D0BFF35F8FD4F82E
:105310008030BFF35F8FE4E7FEF700FA63E700BF7A
:1053200000108051010004001010805120108051A5
:105330002DE9F0411E46124B0C4603604FF4DE711E
:1053400005469046069FFFF767FDB8B9A8F1040827
:1053500004EB8606284658F8042F54F8041B01F085
:1053600035FA58B9B442F5D13946284601F05DFA0C
:1053700020B92846BDE8F04101F072BABDE8F081DD
:105380000C870000F0B51D462F4BADF50F7DCDE924
:105390000401CDE90235222120230FAFCDE9061308
:1053A000CDE9083206460323009707AA03A91FA8E0
:1053B000FFF7BEFF0446002842D11FA8FFF7B2FD49
:1053C000239B224A22499A66F27FEB7FD209DB09AE
:1053D0004FEA427218BF42F080420AAB1FA801F0A8
:1053E00059FB044648BB202239460A9801F044FB89
:1053F00020220B9817A901F03FFB0C9C202220468D
:10540000314601F039FB2022F37FA91803F07F0316
:10541000E3770D9801F030FB0E9C202229462046B0
:1054200001F02AFBEB7F1FA803F07F03E37701F075
:1054300003FC1FA8FFF726FD04461FA8FFF7A2FDE7
:1054400020460DF50F7DF0BD900200202C87000056
:105450004C7300002DE9F04383B098460B880D464D
:1054600023F0FF09B9F5824F164600AF32D1AA6882
:10547000002838D112F4005F4CD0D8B24228698895
:1054800034D101F10804E4080023073424F00704B0
:10549000ADEB040D3A1D6C467B60FFF75DFEF0B985
:1054A0006A681F4BB3EB122F17D0B9F5824F28D182
:1054B00042463146684601F0F0FC7B685B68202B71
:1054C0002BD1D7E90B23B96A2046FFF75BFF01F028
:1054D00088F804E0B9F5E24FC9D06FF085000C37C9
:1054E000BD46BDE8F08312F4006FC5E7CC1D41282E
:1054F0004FEAD40402D064000134C5E7002CC3D1C4
:10550000EBE769463046FFF74FFD01F06AF80028E7
:10551000D3D0E4E76FF08600E1E76FF09400DEE7B8
:10552000004E80007FB5104E4568B6EB152F4FEA50
:10553000152403D00D4DAC4200D094B9048804F476
:105540004F44B4F5824F0CD1089C02944024CDE91D
:10555000003413460A4601460120FFF77BFF04B0E2
:1055600070BD6FF08500FAE7004E80004B4E800062
:105570004FF4807313B504460193FEF7BBF8FFF7B1
:105580002FFC214B01AA1A60112220492048C3E9AF
:10559000021240F6110103F110025A601D4AC3E9DC
:1055A00006011A6120321A62212203F12001596199
:1055B000012119485962C3E90A02184AC2E90110D7
:1055C00020211460D160BFF35F8F4FF0A3410B60C7
:1055D000BFF35F8FBFF35F8F0A61BFF35F8FBFF3CE
:1055E0005F8F03234B63BFF35F8FBFF35F8F8B63CB
:1055F000BFF35F8FFEF7F4FC431C0446FAD0FEF7BE
:105600008DF8204602B010BD341F00200400002099
:10561000200000200803002010000020241F00208C
:105620002DE9F041454F96B00DF14F0601F10F08FD
:10563000D7E90C32134305460C4626F01F064FEA05
:1056400018183AD0D7E90C2318EB020243F10003F3
:10565000B3F5803F13D36846FFF7BAFD002854D155
:105660006846FEF775FC00284AD103460DF8003065
:1056700001303028FAD100220023C7E90C23102C76
:10568000A0464FF0100228BF4FF0100801232C490C
:1056900011F8010D013A03440B704FEA1323F7D1BF
:1056A0003046FFF765FF58BB94BBD7E90C32013396
:1056B00042F10002C7E90C32E1E7BA6B214B9A4292
:1056C000DDD000231A46FA540133402BFBD1684643
:1056D000FFF77EFD80B96846FEF73AFC98B90346AD
:1056E00002460DF803200133302BFAD100230122AA
:1056F000C7E90C23134BBB6300F073FF0028A1D054
:1057000016B0BDE8F0810E20F6E76FF09200F7E7E3
:1057100042462846314601F0C0FBD7E90C3201333E
:1057200042F10002B4EB0804C7E90C324544A6D1AB
:10573000204616B0BDE8F041FEF70ABC0803002081
:1057400038030020B4A5B4A502480B1A58425841AA
:10575000704700BF00080006034BC3F80005D3F8EC
:105760000024D207FBD5704700B0045030BFFFF7CC
:10577000FDBF00BFEFF30880EFF3098101B572466A
:10578000FDF730FD01BD00BF002080F31488BFF39A
:105790006F8F002080F30A8880F30B880F4880F316
:1057A0000888FDF70FFF00200D490860BFF34F8FF9
:1057B000FDF78EFD202080F311880A484FF4006128
:1057C000401880F30988EFF314800221084380F326
:1057D0001488BFF36F8FFDF7A1FD0000705000200B
:1057E00094ED00E0705000201EF0040F0CBFEFF3AA
:1057F0000880EFF30980816911F8021C0229FFD0AB
:1058000001B5724600F08CFF01BD00BF08B502482B
:1058100000F00CF8FEE700BFD88A000008B5024B84
:105820001B689847002008BD641F0020F8B50E4B88
:1058300006461D68AB789B0712D56F6816F8014BBA
:1058400029462CB90A20B847002805DB204609E084
:105850002046B8470028F1DAAB7843F00403AB7078
:105860004FF0FF30F8BD00BFCC88000008B5054BF5
:10587000044613B10021AFF3008000F005F8204684
:10588000FFF7C4FF0000000038B5074D074C641B4C
:10589000A41024B9064B0BB1AFF3008038BD013C16
:1058A00055F824309847F4E700000000000000009D
:1058B0000000000010B504464FF41372002101F0FF
:1058C000E4FA204610BD002070474379012B07D130
:1058D0000368012B04D10079431E58425841704798
:1058E0000020704770B50368CD1A002D02DC6FF000
:1058F0005F0070BD93F900601C78002E0ADB5C1C11
:1059000004601B7813600368C91A13688B42EED8D1
:105910000020EEE704F07F04013C032C2BD8DFE8E5
:1059200004F0020A1421012DE1D05B7813600368B2
:1059300002330360E7E7022DD9DDB3F801305BBA2B
:105940009BB2136003680333F3E7032DCFDD9C782C
:105950005D782402DB7844EA05442343136003683E
:105960000433E6E7042DC2DDD3F801301BBA13601F
:1059700003680533DDE76FF06300BAE770B40468CD
:105980000E1B002E07DD26789E4208D101340460EC
:1059900070BCFFF7A7BF6FF05F0070BC70476FF07F
:1059A0006100FAE70368D90444BF43F480630360ED
:1059B00003689A0444BF43F400630360704708B56A
:1059C0008368DB689847006808BD70B48D6800265E
:1059D00005F00305032DCB6002D08E6070BC7047CC
:1059E0004D688E60002DF9D0AC4670BC6047038BCB
:1059F00013F0070305D10368002B0CBF0020032020
:105A00007047022B05D1408BB0FA80F0400980002E
:105A10007047012B05D10368002B0CBF0020052027
:105A200070470020704710B4EFF31182202484F3F4
:105A30001288BFF36F8F416110BC0121FAF744BD9A
:105A400040B1C368587810F001001EBF1878B0FA52
:105A500080F0400970477047002930B404460DDBE0
:105A6000806888420AD9401A834207D8E06864688F
:105A7000214484682468A44630BC60476FF0150058
:105A800030BC704710B484680A46203C24F00F04F0
:105A9000A4F13001042310BCFFF7DEBF002930B4AD
:105AA00004460DDB806888420AD9401A834207D831
:105AB000E0686468214484686468A44630BC604738
:105AC0006FF0150030BC704708B5C0688368DB68AC
:105AD0009847407908BD012801D1EFF30583EFF322
:105AE0001183202383F31288BFF36F8FEFF31182AA
:105AF00083F31288BFF36F8FFEE70021012008B502
:105B0000FFF7E9FF72B6002383F31188BFF36F8FAD
:105B1000BFF34F8F20BF80F31188BFF36F8F62B642
:105B2000704740E800F313F4803FD8B208BF6FF02D
:105B30001500704730B50C684B6885B00A894D89EF
:105B40000094013B24F01F04234402F01F0242EAA8
:105B5000451223F01F0369468DF808200393FAF7D6
:105B600013FE05B030BD0C220369C9B201FB02333C
:105B7000186C00F00700704770B5C9B20369EFF305
:105B80001185202484F31288BFF36F8F0C2606FB47
:105B90000134246C14F0C00408D0A24206D085F36E
:105BA0001188BFF36F8F4FF0FF3070BD012206FBED
:105BB00001331A6485F31188BFF36F8F436803EBD9
:105BC000C1035B6898470020EFE78022FFF7D4BF4E
:105BD000F8B5069F0469C9B2EFF31186202585F355
:105BE0001288BFF36F8F0C2505FB0144256C05F06F
:105BF000070CBCF1010F0CD1276486F31188BFF3A9
:105C00006F8FC4E90E23436853F831309847002062
:105C1000F8BD05F0C005AF4286F31188BFF36F8F62
:105C20000CBF6FF077004FF0FF30F1E713B5802421
:105C30000094FFF7CDFF02B010BD6FF085007047F4
:105C400010B41C240069CBB203FB0400002110BC7B
:105C50001047FAF74FBE436800205B68DB680B60B3
:105C60007047436802EA01005B6821EA020158605C
:105C7000002099607047436800205B685960704756
:105C8000436800205B689960704743685A681368EE
:105C900021EA03000B40506000209360704710B56C
:105CA00003695868F8B1884219D19C680868A14214
:105CB000586000D19860002008602AB15A680A60D4
:105CC0009A68596002B99960002010E0814206D1BB
:105CD0000868206098688142EDD19C60EBE704463B
:105CE00000680028F2D1002AE8D16FF0150010BD3D
:105CF000F0B4D40213468768066906D512F4402F23
:105D000003D0DA0748BF83F44023012534688D406F
:105D100023F48012DB074CBF2C43AC4334603B6858
:105D2000F0BC1847F0B4D0E901631B693BB1776858
:105D30008F4208DB3568954205DCF0BC18476FF0F0
:105D40005700F0BC70476FF01500FAE7012303FA23
:105D500001F103691B68194218BF82F0010212B1F8
:105D60008368DB68184783681B69FBE708B54368ED
:105D7000986A38B1012293F82C10FFF7E7FF00EA88
:105D8000E07008BD6FF08500FBE74368986A20B1BA
:105D9000002293F82C10FFF7D9BF6FF085007047F1
