:020000040000FA
:100000004059002045180000556F000031180000CD
:1000100031180000311800003118000031180000BC
:1000200000000000000000000000000015190000A2
:1000300031180000000000003118000031180000E5
:100040006D1A00006D1A00006D1A00006D1A000094
:100050006D1A00006D1A00006D1A00006D1A000084
:100060006D1A00006D1A00006D1A00006D1A000074
:100070006D1A00006D1A00006D1A00006D1A000064
:100080006D1A00006D1A00006D1A00006D1A000054
:100090006D1A00006D1A00006D1A00006D1A000044
:1000A0006D1A00006D1A00006D1A00006D1A000034
:1000B0006D1A00006D1A00006D1A00006D1A000024
:1000C0006D1A00006D1A00006D1A00006D1A000014
:1000D0006D1A00006D1A00006D1A00006D1A000004
:1000E0006D1A00006D1A00006D1A00006D1A0000F4
:1000F0006D1A00006D1A00006D1A00006D1A0000E4
:100100006D1A00006D1A00006D1A00006D1A0000D3
:100110006D1A00006D1A00006D1A00006D1A0000C3
:100120006D1A00006D1A00006D1A00006D1A0000B3
:100130006D1A00006D1A00006D1A00006D1A0000A3
:100140006D1A00006D1A00006D1A00006D1A000093
:100150006D1A00006D1A00006D1A00006D1A000083
:100160006D1A00006D1A00006D1A00006D1A000073
:100170006D1A00006D1A00006D1A00006D1A000063
:100180006D1A00006D1A00006D1A00006D1A000053
:100190006D1A00006D1A00006D1A00006D1A000043
:1001A0006D1A0000598600006D1A00006D1A0000DB
:1001B0006D1A00006D1A00006D1A00006D1A000023
:1001C0006D1A00006D1A00006D1A00006D1A000013
:1001D0006D1A00006D1A00006D1A00006D1A000003
:1001E0006D1A00006D1A00006D1A00006D1A0000F3
:1004C0006D1A00006D1A000070B4174E0C46B04251
:1004D000154608D00136B0420FD0023EB04210D0CF
:1004E00070BC04F0AFBF0AA3D3E90023C5E9002321
:1004F0000E4B0020236070BC704707A3D3E9002394
:10050000F4E707A3D3E90023F0E700BFAFF30080CF
:1005100002C0FF7F0000000003C0FF7F000000005A
:1005200001C0FF7F0000000002C0FF7F03004E807B
:1005300030B585B005F02FFF01A800F037FC154B52
:100540001B68834200D0FEE769469DF8080005F06D
:100550001AFF044608B106F049FD009A039B0E4DB0
:100560001344019A128913442B6002F099F800F0A9
:1005700033FE00F015FE06F049FD01F0B3FC01F07A
:1005800091F984F30B8884F30A88044B2868984710
:10059000FEE700BF141400201004002061000020BA
:1005A00021B1012906D06FF015007047044B53F8B4
:1005B00030007047024B03EBC0035868704700BF20
:1005C000689700002DE9F04FADB0389FDFF85481F7
:1005D0000DF1700BD8F800400397379FCDF804B0A9
:1005E0000297369F814600978A461546399E00F04D
:1005F000EBF828B1D8F8004020462DB0BDE8F08FC8
:1006000056B15A462CAF134603CBBB4230607160E3
:100610001A4606F10806F6D100232A4600935146F1
:100620004FF6FF7306A805F0B7FE07460028E1D194
:10063000294648460B9E05F095FFB042DAD34FF0AD
:10064000FF36DFF8E490DFF8E4A00DF1120304AA0E
:1006500005A906A805F0EEFE0028CBDB5ED10599C2
:1006600006A805F033FFBDF8123040B94FF6FF7011
:100670002F4931F8022B8242BCD09342F9D1122B80
:1006800015D0242B2AD0012BDFD1BDF81030402B00
:10069000B0D8284605990CAA06F0DBFB0028A9D1A2
:1006A0009DF810100CA800F045F80646CDE7BDF8FF
:1006B0001070402F9ED13B46284605990CAA06F0A3
:1006C000C8FB002896D13A4658460CA905F00CFF05
:1006D000D9F8003083428DD10127B6E7002E1ADB0E
:1006E000DAF80030B34216DDBDF81040402C81D15D
:1006F0002346284605990CAA06F0ABFB00287FF498
:1007000079AFF6B221465846BDF8103000960CAAD3
:1007100000F0FEF804464FF0FF3696E7002F7FF416
:100720006BAF67E7340100201414002070970000BD
:10073000989B00002DE9F041402980460D46ADF51B
:100740009C6D06D94FF0FF3420460DF59C6DBDE839
:10075000F0810024194B1A4E1B681A4F0193019B1C
:10076000A342EFDD4FF413720021A5A808F092FA1E
:100770004FF41372A5A912A808F07FFA394612A8FF
:1007800007F08EFA736812A81A6856F8081B07F06B
:10079000A7FA0023402202A9A59312A8A5AB07F04F
:1007A000B3FA12A807F071FA2A46414602A808F0E7
:1007B00079FA0028C8D00134D1E700BF7097000053
:1007C000749700000B0000022DE9F04792464FF4A9
:1007D0001372ADF5936D0DEB02000C4600219946A6
:1007E000DDF8C054DDF8B864DDF8C47408F052FADE
:1007F0004FF4137268460DEB020108F03EFA6846AA
:100800001C4907F04DFA35B1002F04DD3A46294660
:10081000684607F065FA002563892289D4F80C80C0
:1008200013449844454509D3002440226846DDF826
:10083000BC1493AB939407F067FA0CE0A8EB0507A0
:10084000B74228BF37464A463B462946504606F03F
:1008500000FB044638B1684607F017FA20460DF54C
:10086000936DBDE8F0873A464946684607F038FA86
:100870003D44D7E70B000002F0B5214C0E4654F87A
:10088000331004EBC30489B063680091054618680F
:10089000174601443023684601AA06F050F918B102
:1008A000184B186809B0F0BDDDE900431C4421462F
:1008B000684605AB02AA06F06AF90028F0D1039A4F
:1008C000032AEDD11049049808F0ECF90028E7D18B
:1008D0002146684601AA06F046F90028E0D1DDE984
:1008E000003299188C42DBD1202AD9D13A463146C0
:1008F000284600F01DFC0028D2D0044BD1E700BFF1
:100900007497000034010020C69B000014140020DE
:1009100010B5064C4029246806D1402B04D19DF81F
:100920000830FFF7A9FF0446204610BD340100201F
:10093000094A40000B7852F820108B4209D0013050
:1009400052F82000834214BF4FF0FF304FF4407044
:1009500070474FF4407070477C97000038B50E4BDD
:100960000446002918BF0B46436203F500630321C8
:10097000036505F03EFE58B90621204605F039FE14
:10098000054638B9206A06F08EFAE065284638BD7B
:100990000125FBE70925F9E7140400202C2310B5F5
:1009A00059434218146A0CB906F020FB41580B4B0E
:1009B000994206D1D16813895B1802D25189C918AE
:1009C00001D3002009E0A3689942FAD2136940F6E6
:1009D0000C621A420CBF0120002010BD3DB8F396F6
:1009E0001FB52C2303FB02010A6A0AB906F0FEFABE
:1009F0000023CDE9023301934FF480730093034B3E
:100A0000FFF7E0FD05B05DF804FB00BF38200020D3
:100A10002DE9F0412C2707FB0107D7F82080044679
:100A20000D461646B8F1000F01D106F0DFFA05F0C9
:100A300072FE10B93B69DB0617D595B141462046D9
:100A400005F0F2FEF379042B06D1216A0029ECD0DF
:100A5000204605F0E9FE04E0002001F00DFF042827
:100A6000F3D00E4B1868BDE8F08129462046FFF709
:100A700095FF60B90A4B18680A4B1B688342F2D095
:100A8000002DEED00121404605F040FEE9E72A4660
:100A900031462046FFF7A4FFEEE700BF30010020FB
:100AA000340100201414002000487047181800205A
:100AB00073B50D46002104462846CDE9001105F026
:100AC0007DFE18B323681B4EB34206D1204601AA0F
:100AD00005F04AFD08B106F089FAE36AB34206D18F
:100AE0006A460121204605F03FFD0028F3D1DDE9EB
:100AF0000032934288BF0193019BAB602046294698
:100B0000019A00F021FA002002B070BD0146204693
:100B100005F0F9FC06460028DDD005F1080105F0D6
:100B200004FD0028D7D1AB683046019306F090F958
:100B3000E4E700BF3DB8F3962DE9F04B0E46904632
:100B400099460024099FDFF844B0BC4201D300203D
:100B50000EE03D1BB5F5806F28BF4FF48065304631
:100B60002B460A4A04EB090106F073F910B1012083
:100B7000BDE8F08B08992B465A464046611806F0AE
:100B80007DF90028F3D12C44DFE700BF18140020C2
:100B9000F0B587B00E46044605F0E2FD014600B10F
:100BA000FEE72046FFF7DAFE68BB0022204611462A
:100BB00005F0BEFD002865D1204605F010FF002895
:100BC00060D002A805F0F1FD0146204605F06AFE5E
:100BD000002857D102A805F0F1FD80F0010102AA1A
:100BE0002046C9B205F0A4FD024600284AD102A859
:100BF00005F0E4FD002849D1204602A9FFF758FF7F
:100C000098B106F0F3F90123984284F85830CCD11A
:100C100094F85830042B8DF80F3061D8012B66D82A
:100C200079D0FF2384F8583075E09DF80F30DA1E34
:100C3000012A84F8583019D800F0DAF89DF80F30FE
:100C400028B9023B022B08D994F8583011E0FF2252
:100C5000023B022B84F85820D3D8002000F0B2F8D1
:100C60000028F1D0FF2384F85830CAE79A1E022AE0
:100C7000F3D9FF2BC5D000222046114605F058FDC0
:100C80000028BED1012384F85830C1E79DF80F70C9
:100C9000012F18D1104601F0EFFD831E022B0546EF
:100CA0000ED83946204602AAFFF7B2FE3C4B1B681D
:100CB000984205D03B4B1D68A84214BF052501256D
:100CC00084F85850A4E70121204602AAFFF7A0FEAD
:100CD000334B1B68984214BF05239DF80F30D2E7B1
:100CE000052B9ED1002000F083F8A0B199E72046A3
:100CF00002A9FFF7DDFE002883D194F85830DA1EF0
:100D0000012A23D800F074F80028ABD1002000F0AD
:100D100059F80028A6D194F85830FF2B3FF471AF52
:100D20000022012B204D019213D01146204605F0E0
:100D3000FFFC70B12D681022002102A807F0AAFF65
:100D4000204605F025FD284607B0F0BD022BE2D174
:100D5000DCE7002220461146FFF75AFE104F3B68A1
:100D60009842E7D12B689842E4D00E4B1B6898421A
:100D7000E0D00021204605F0F1FC0028DAD1019BEB
:100D800001330193019B012B00D0FEE7206A05F09F
:100D900000FB3071236A5B6834603D68B360CAE76A
:100DA00014140020300100203401002010B5044646
:100DB000002005F039FC02482146FFF7E9FE10BD8E
:100DC0001818002013B5094B01A913F8300000F0E2
:100DD00083FB48B9019806F0EFFA0446019806F043
:100DE00037F8204602B010BD0124FAE784970000CE
:100DF0001FB50F4B01A913F8300000F06DFBA8B927
:100E0000019802A901F0E2FC044668B99DF80B3094
:100E1000032B03D1019806F097FA0446019806F0D7
:100E200017F8204604B010BD0124F7E70124F8E7C5
:100E3000849700002DE9F34106460C4617461D46EF
:100E40000BB9002121E0184605F0B8FC0146002846
:100E5000F7D1304605F057FB18B9012002B0BDE8C4
:100E6000F08101A905F061FB0028F6D10199304617
:100E700005F04AFD736A59686B79012B0CD1002C7F
:100E8000DFD12B68834298BF00212C2303FB04662B
:100E9000306AB0B906F0AAF8022BD2D12B68012B28
:100EA00005D98342CDD8B4FA84F46409C9E7C8D11E
:100EB000002CEAD0012CC4D12C79023C18BF0124AB
:100EC000BFE720233A4605F0C4FF0028C5D1002D16
:100ED000C4D03868024BC01A18BF4FF0FF30BDE7CE
:100EE0003DB8F39673B54B681446164A03F0FF23DA
:100EF000934206460D4623D10B68012B20D169464B
:100F0000204601F063FC08B106F070F89DF800304F
:100F1000032B15D12146304605F086FC0028F3D17D
:100F2000204606F011FA0028EED12046A96805F007
:100F30000AFB0028E8D1204601F026FC0028E3D176
:100F400002B070BD000100042DE9F04F054687B0E6
:100F50000C46114605F0D8FC6B6A039020465F688A
:100F600005F02CFC90B1E86D05F069FB0022AB6A3E
:100F7000013B3A44904201D9013BFAE7039A93427C
:100F800004D80123E37107B0BDE8F08F2E6A0EB9D3
:100F900006F02CF8D5F84C80B8F1000FF8D0424696
:100FA00021462846FFF79EFF6379012B56D1DDF8D5
:100FB0000C90DFF878B14CE022680399C2F101038C
:100FC0000B444B4543D36B6A012A196853F8390027
:100FD00003EBC90353F8083CA0EB010AA3EB0103A0
:100FE000049315D1E368022B0CD03146284605F056
:100FF0001BFC0028CCD122463146284605F029FCAE
:101000000028C5D14146284605F00EFC0028BFD176
:1010100000233A465146304605F02DFB0028B7D153
:10102000324631462846CDE900A7049BFFF784FDF0
:101030000028ADD12146284605F0CDFB23680133B9
:10104000236020B1DBF800300133CBF8003009F128
:10105000FF39B9F1000FAFD10123236002234FF014
:1010600001096371039B99458DD823684B455AD874
:101070006A6A4FEAC90352F83910083BD2F800B047
:101080000491D1582A6DD0581368A0EB030A237934
:10109000012B46D1A1EB0B0100233A4630460591C6
:1010A00005F0E9FA00287FF473AF059953460091E3
:1010B0003246414628460197FFF73EFD00287FF45F
:1010C00067AF2146284605F086FB0223237118B13D
:1010D000164A13680133136000233A4651464046CE
:1010E00005F0C9FA00287FF453AF049B424631460D
:1010F0002846CDE900A7A3EB0B03FFF71DFD002851
:101100007FF446AF2146284605F065FB236801338E
:1011100023600123237130B1044A13680133136043
:1011200001E0022BD8D009F101099BE778180020D3
:101130002DE9F0418AB004460D46164600211C22D6
:1011400003A81F4607F0A6FD03F01CF920B10024F8
:1011500020460AB0BDE8F08144F24213ADF80C30ED
:101160004FF40063DFF834802022CDE9053839469A
:1011700002AB03A802F0B8FF0028E8D140232246C2
:10118000CDE9006341462B46029806F0CEFDB0FA49
:1011900080F40298640902F079FFD9E7000800069C
:1011A000BFF36F8F72B600234FF0FF30094A03F18F
:1011B00020010133102B42F82100F8D100234FF019
:1011C000FF30044A03F160010133102B42F8210083
:1011D000F8D1704700E100E02DE9F04300264FF020
:1011E000FF352F4FDFF8BC80DFF8BC9085B057F893
:1011F000044BC4F30830C4F8085300F0ABFB0123E0
:10120000E3620023C4F85031D4F85021C4F84C31C3
:10121000D4F84C21C4F82431D4F82421C4F8003582
:10122000D4F8042668460092D4F80C260192D4F82B
:1012300010260292D4F80826C4F8045603921A46DF
:10124000C4F80C56C4F81056C4F8085650F8041BDD
:101250004B1C11D07F2901F01F034FEA511419D8FC
:1012600058F8241001EB8301D1F8803003EA090318
:1012700043F00203C1F880300132042AE6D101367E
:10128000032EB4D14FF0FF32084BC3F8082305B04A
:10129000BDE8F0830022203352F82330FFDE00BF88
:1012A000A097000090970000F0F0FCFF00E01050C5
:1012B0002DE9F047058B04462807904611D40229F2
:1012C00005F0070540F0CC80204605F0B8FC78B169
:1012D0000138218B042811D8DFE800F0C2106D8599
:1012E000950001290CBF45F0100545F02005258328
:1012F00088F31188BFF36F8FBDE8F08701F0070A0C
:10130000AA4500F0A5800027B9463E46A368002BF9
:1013100000F0BC8041F00801218388F31188BFF3FD
:101320006F8FA168002900F0BA800D68002900F0D5
:10133000B680334652462046D1F80480C047002D7F
:1013400076D02B6829461D46F0E701F007035A1FA7
:10135000012A1BD8002221F00701062B276889B239
:10136000C4E9002209D13B4603E0628B013262836B
:101370001B68002BF9D141F002012046218305F0C2
:101380005EFC00287AD041F0200176E0042B0AD1DF
:1013900021F0070189B22046218305F050FC10B1ED
:1013A00041F020012183218B01F0070AAA454FD08B
:1013B0000027B946AAE7236921F0070141F0060199
:1013C000062DD3F8009021832DD1B9F1000F3FD025
:1013D00041F00801218388F31188BFF36F8F204605
:1013E0003949C84729E021F00701236941F0040188
:1013F00089B2042DD3F804902183E6D000274FF062
:10140000040A3E4682E721F00701236941F0050105
:1014100089B2052DD3F808902183D6D000274FF04C
:10142000050A3E4672E700274FF0060A3E466DE782
:101430002B4687E7B9F1000FD1D1EFF311882023B4
:1014400083F31288BFF36F8F238B23F0080323836A
:10145000258BEA062ED525F01003238305F007051A
:101460006669218B002EBFF670AF00232768C4E9A0
:10147000003321F0070141F001012183218B4FF05E
:10148000000901F0070AAA457FF440AF002F9CD065
:1014900041F00801218388F31188BFF36F8F002F7B
:1014A000C8D03D68394633465246204605F0F3FB26
:1014B0002F46F4E7AB067FF51BAF25F0200323830F
:1014C00005F0070500E700BFC36C0000014B036097
:1014D00000207047AC97000070B5104B0D461C689B
:1014E000B4B10F4B196800238B4202DB6FF001008F
:1014F00070BD224612F8106B864202D014460133AA
:10150000F2E7E06806F016FA28B100202C60EFE759
:101510006FF00C00ECE76FF01200E9E738010020F3
:10152000AC97000010B5436888B0029383680C46FE
:10153000CDE9033200230A68C068CDE906230549D6
:1015400001AA059305F0E5FD079808B9059B2360FE
:1015500008B010BDC36E000008B50348034A00215F
:10156000121A05F0E9FC08BD2003002040290020E4
:10157000074808B5074A0849121A05F0DFFCBDE81C
:1015800008400648064A0749121A05F0D7BC00BFB2
:10159000A00000201C030020F09D0000600000203F
:1015A000A0000020B09D000030BFFFF7FDBF00BFCE
:1015B000154B9A6A12F0007F9A6A14BF1E201D20F4
:1015C00012F0807F9A6A18BF1F2012F4801F9A6A57
:1015D00018BF022012F4002F9A6A18BF212012F4BB
:1015E000802F9A6A18BF222012F4003F9A6A18BF0F
:1015F000232012F4803F9A6A18BF24206FEA024227
:101600006FEA12429A62704700ED00E010B5184B85
:101610000246986A9C6A10F4805F14BF1720162057
:1016200014F4006F9C6A18BF1820A40508D5986AA6
:10163000000404D51AB19A6A22F400429A62192071
:101640000B4B9A6A12F4806F9A6A18BF1A20D2055F
:101650000CD49B6A13F4005F18BF1C20044A936AE1
:1016600043F47F43936200230B7010BD1B20F5E70A
:1016700000ED00E010B51C4B0246986A9C6A10F021
:10168000100F14BF1120102014F0080F9C6A18BF0F
:101690001220A40709D5586B986A000604D51AB120
:1016A0009A6A22F080029A6213200F4B9A6A12F013
:1016B000010F9A6A18BF142012F0200F9A6A18BFFF
:1016C0001520D40658BF9B6A074B9A6A920642BF00
:1016D0005A6A22F400525A629A6A42F0FF029A62EF
:1016E00000230B7010BD00BF00ED00E0F0B5474BCC
:1016F00004465B6800258BB0C3F3080385F31188AB
:10170000BFF36F8F02F07F40B0F17F4F11D102F035
:101710000C0008280DD010074CBF0C4601250022F4
:10172000033B8DF80720032B05D8DFE803F0246284
:10173000665F2C46F3E700239DF80720CAB902AE86
:1017400004F12007324620686168083403C2BC42B5
:101750001646F7D1099A002D53D0C2F3080121B9DA
:101760006FEA52226FEA42220992184602A905F056
:10177000E7FB0BB0F0BD254BDA6A9107DBD4DA6AE0
:10178000002AD8DBDA6A5200D5D55A69A16942F439
:1017900080725A61BFF34F8FBFF36F8F5A6931F870
:1017A000021C22F480725A61BFF34F8FBFF36F8F18
:1017B0004DF60272914209D09A6AD2B242B101202A
:1017C0000DF10701FFF756FF0346B5E72368B3E7BE
:1017D0009A6A12F47F4F05D001200DF10701FFF73F
:1017E00015FFF1E79B6AB3F5803FA4D3FFF7E0FE56
:1017F000EAE700200DF10701E4E700200DF1070101
:10180000EDE722F4FF7222F00102ADE700ED00E007
:10181000064B5A6942F010025A615A6942F48062DA
:101820005A615A6922F008025A61704700ED00E0DF
:10183000EFF30880EFF3098101B57246FFF756FF19
:1018400001BD00BF002080F31488BFF36F8F00201C
:1018500080F30A8880F30B880F4880F3088801F032
:1018600077F800200D490860BFF34F8F00F02CF887
:10187000202080F311880A484FF40061401880F35B
:101880000988EFF314800221084380F31488BFF322
:101890006F8F00F0A5F800004059002094ED00E0A3
:1018A00040290020002318460649D1F89020C2F3B1
:1018B0000722934200DB7047C1F89830C1F8A000BE
:1018C0000133F6E700ED00E010B572B6002484F3B2
:1018D0001388FFF7E7FF23464FF0FF300C4A03F170
:1018E00020010133102B42F82100F8D100234FF0E2
:1018F000FF30074A03F160010133102B42F8210049
:10190000F8D162B6BFF34F8FBFF36F8F10BD00BF2A
:1019100000E100E01EF0040F0CBFEFF30880EFF3CE
:101920000980816911F8021C0229FFD001B57246B5
:1019300005F00CFB01BD00BF00B2002807DB01234E
:101940004109034A00F01F00834042F821307047EC
:1019500000E100E000B200280CDB01220649430947
:1019600000F01F008240203341F82320BFF34F8F47
:10197000BFF36F8F704700BF00E100E0054B4209E5
:1019800053F82220012300F01F0003FA00F010405A
:10199000704700BF00E100E000B2002801F1010142
:1019A000ACBF00F16040064B4FEA4111C9B2ABBF7A
:1019B00000F5614000F00F0080F8001319547047E3
:1019C00014ED00E0044B054A23F07F039360BFF35E
:1019D0004F8FBFF36F8F70470000000000ED00E0F5
:1019E00008B5FFF7EFFF074AD2F8883023F47003F9
:1019F000C2F88830FFF7B0FDFFF7BAFD00F028F815
:101A000001F0D4FE00ED00E0154680B506460C4618
:101A1000002282F30B880A4FA7F5205888F30B8821
:101A200087F30988002004498847204629461A463A
:101A3000B04702488047FEE76D6F00007B6F0000F3
:101A4000405900201022014B1A61704700ED00E060
:101A5000002320210448C2180133B3F5917F82F896
:101A60000013F8D1704700BF00E100E008B5EFF3C4
:101A70000583064A103B02EBC30152F83300496864
:101A80008847BDE8084005F06CBA00BFA08D000093
:101A90000121024B024A034800F0ECB800FC072089
:101AA000000000204098000010B50C7A0B6804F08C
:101AB0001F0223F01F031A43CB68640923F01F039E
:101AC000054943EA440343F00103C1F89800C1F813
:101AD0009C20C1F8A03010BD00ED00E010B5074B10
:101AE000D3F89030C3F30723013B984202D8FFF7A5
:101AF000DBFF10BD6FF01500FBE700BF00ED00E05D
:101B00002DE9F04F0F46144606464FF000084D4DA4
:101B100085B0B84580F29280D6F80490B9F1000FF4
:101B200036D0B9F11F0F40F2878019F01F0F40F037
:101B30008380D6F800A01AF01F0F7DD1504605F023
:101B400033FA834609EB0A00013805F02DFA834584
:101B500072D11BF1160F6FD05C456DDDC5F898B0E2
:101B6000D5F89C10C5F898B0D5F8A03021F01F0129
:101B700043F01F0AD6E900321A44994202F1FF39B4
:101B80001ED1CA4508D131465FFA8BF005F015FA2F
:101B900008F101080C36BCE73146C5F898B0D5F815
:101BA0009C3022F01F0203F01F031343C5F89C3042
:101BB000E0B205F002FA10F1160F3DD0441CE7E741
:101BC000C5F898B0D5F8A020013B23F01F0302F020
:101BD0001F021343CA453146E0B2C5F8A030E8D031
:101BE00005F0EBF910F1160F26D0C5F898B0D5F82E
:101BF0009C209DF808300AF1FF3A62F304038DF847
:101C00000830D5F8A0309DF808205B0863F3471230
:101C10008DF80820D6E900321344009323F01F0307
:101C20005344A3EB0903013023F01F036946C0B2FC
:101C30000393FFF753FFBEE76FF01504204605B08E
:101C4000BDE8F08F00ED00E00522044BC3F89420BE
:101C5000BFF34F8FBFF36F8F704700BF00ED00E001
:101C6000BFF35F8F0022024BC3F89420704700BF80
:101C700000ED00E010B5034C2278FFF741FF207023
:101C800010BD00BF38210020F0B55249524CD1F8A8
:101C900090302568C3F307239D4287B000F29680F9
:101CA0000020FFF7DDFF4D4BC1F8C030854216D153
:101CB0004B4C01A82570FFF709FC00250646494F4B
:101CC000AE4213D1002023784249D1F89020C2F3CC
:101CD0000722934274DBFFF7B7FF002043E06168FF
:101CE00001EB0011FFF7E0FE0130DFE70199280169
:101CF00001EB0513DA683A40B2F5800F42D007D8FD
:101D0000B2F5801F15D0B2F5001F2ED00135D7E7F0
:101D1000B2F1006F43D0B2F1805FF7D15A689B688F
:101D20000958013B22F01F00034423F01F03012048
:101D300032E05A689B680958013B22F01F000344B7
:101D40000120844623F01F0340EA4C10CDE9022114
:101D50008DF8100002A920780593FFF7BFFE002838
:101D60002ADA6FF0150007B0F0BD5A689B68095871
:101D7000013B22F01F0003444FF0020C012023F02E
:101D80001F03E1E75A689B680958013B22F01F00D6
:101D90000344022023F01F034FF0000CD4E75A68DD
:101DA0009B680958013B22F01F0003444FF0030CCD
:101DB000012023F01F03C7E7237801332370A5E731
:101DC000C1F89830C1F8A00001337EE74FF0FF3032
:101DD000C9E700BF00ED00E04C980000AAFF4400F6
:101DE000382100200000F0FF08B5024804F094FA02
:101DF000FEE700BF059C000008B5024B1B68984732
:101E0000002008BD7C18002008B5244A244B1A6025
:101E100000F060F84FF47A612248D0F82436C3F31A
:101E20000802C3F309434B4382F480721E4988328F
:101E300001FB02334FF4FA215B00B3FBF1F201FB2B
:101E400012331A49B3F57A3F28BF0132C1F8042989
:101E5000D0F820364FF47A60C3F30802C3F3094385
:101E6000434342F21C5082F4807202F2172200FBBC
:101E700002334FF47A701B0AB3FBF0F200FB12330B
:101E80000020B3F5FA7F4FF0010328BF0132C1F8FB
:101E90001C27C1F80009C1F8003608BD0020A107C1
:101EA000C002002000C0FF00F82A0080000012508D
:101EB00048B1054B054A1B68B3FBF2F35843044B8A
:101EC00043F0010318477047C002002040420F0052
:101ED000309700000122024BC3F80424704700BF72
:101EE000002008E00022024BC3F80424704700BF22
:101EF000002008E0084B70B5C31A0D4607499B1037
:101F0000044659434022064805F08CF82B4601460A
:101F10002046BDE87040184794180020B76DDBB626
:101F2000148D0000402373B50B4C0093041B0B462B
:101F30000D460A49A41061430646094A094805F0BE
:101F40009DF8011E05DA30462B4602B0BDE8704010
:101F5000184702B070BD00BF94180020B76DDBB603
:101F6000ED700000148D00002DE9F04700220121E2
:101F700007464FF48770FFF70FFD124800F064FD2D
:101F80000446D0B900F08AFD25464FF01C0A4FF0F8
:101F90000C08DFF834903E6949460AFB056004F0FE
:101FA0009DFE031E0CDB012308FB05661D44032D6B
:101FB000F365F0D12046BDE8F0876FF00404F9E73F
:101FC0001C46F7E7C52000007898000010B5EFF335
:101FD0001184202383F31288BFF36F8F074A13689D
:101FE00023F00201DB07116002D4012005F032FA70
:101FF00084F31188BFF36F8F10BD00BF0C19002050
:102000000C22104B014602FB0033002030B4D3E910
:1020100015525865EFF31180202484F31288BFF322
:102020006F8FDC6D04F0C00444F00204DC6580F3C3
:102030001188BFF36F8F1DB12B4630BC0248184783
:1020400030BC704794180020148D000010B4EFF3DA
:102050001182202383F31288BFF36F8F1648016823
:1020600041F002040460C80707D482F31188BFF36B
:102070006F8F012010BC05F0E1B91049D1F80C14A4
:10208000C903F2D5EFF3118083F31288BFF36F8F8A
:102090000B49CB6D03F0C00343F00203CB6580F323
:1020A0001188BFF36F8F82F31188BFF36F8F002009
:1020B00010BCFFF7A5BF00BF0C19002000E01050B6
:1020C00094180020042805D007280AD002280AD135
:1020D000012004E0044BD86D10F0070003D1FFF796
:1020E0008FBF0220FBE7704794180020C3B21C206A
:1020F000014A03FB00207047941800202DE9F843A3
:10210000012207463249D1E8EF3FC1E8E02F00281D
:10211000F9D133B92F4930484B60CB608A6004F065
:10212000F0FD7B1E012B2AD8012F06D12B4BD3F8B3
:10213000503403F00303012B21D005F020FC0546A9
:10214000F8B9274B1B78E3B104220646234BC3F8AA
:1021500008234FF00108214CDFF88890D4F84C2474
:10216000D4F84C34D20315D503F00303012B01D06E
:10217000012F0FD13DB386F31188BFF36F8FBDE8F8
:10218000F883EFF31186202383F31288BFF36F8F58
:102190000125DEE7304604F0F8FED4F8403413F0B1
:1021A000FF03DBD1D4F80821002AD7D0C4F80831C6
:1021B000D4F808314FF48043C4F84084C9F8A03102
:1021C000C4F81080CAE70422044BC3F80423D6E7FE
:1021D0009018002080180020B018002000E0105057
:1021E0003929002000E100E00023024A0020C1E973
:1021F0000023704700501E00004870479C98000064
:10220000024B0B6001231360704700BFA4980000CD
:10221000024B034A0020C3F80C25704700E004502D
:102220008000008070B5164D1446A84225D8C0F530
:10223000F21303F580539A421FD8C2B140F2011342
:10224000104DC5F80035A1B106F017FDBFF35F8F43
:10225000D5F81834DA0705D4230703D00123AB607F
:10226000BFF35F8F4FF48072064BC3F80025002048
:1022700070BDFF2106F00EFDE8E76FF01500F7E7EF
:10228000FF4F1E0000E0045010461A46084B10B5E0
:10229000994209D8C1F5F21404F58054A24203D83A
:1022A00006F0EBFC002010BD6FF01500FBE700BF4F
:1022B000FF4F1E002DE9F04340F206354768D00677
:1022C00048BF4FF0030C3B7C02EA050558BFC2F340
:1022D000401C87B001F01F06B5F5837F144646EA1F
:1022E00043168DF803C046D00DD8062D45D005D82D
:1022F000A5B1022D12D06FF0150039E0B5F5807F41
:10230000F9D101250AE040F20222954237D0B5F515
:10231000407F36D0B5F5007FEDD10425012322039F
:1023200003FA01F12FD57B685960B86880BB7F2E16
:1023300006F01F034FEA561173D83C4A52F8212089
:1023400084F4803102EB8302D2F88030C1F3004183
:10235000C4F3404423F4706344EA410423F00F03C0
:102360001C4344EA8C0444EA0524C2F8804000205F
:1023700007B0BDE8F0830925D0E70825CEE706259C
:10238000CCE70525CAE7630344BF7B689960CCE7C7
:1023900031460DF1020205F03FFA14F4403F804649
:1023A0000CD13146B86805F050FAB8F1000FDED113
:1023B0009DF80210B86800F063FED8E74FF00009FE
:1023C00001ABCDE90199CDE90439CDF80C90314646
:1023D000B86803AA05F064F94845C8DB14F4003373
:1023E00014D09DF8033084F48034C4F300448DF895
:1023F0000E308DF80C508DF80D404B463146B868C4
:1024000003AA00F08BFD0028CFDAB0E7CDE9043352
:102410000DF1030303933146B86803AA05F040F9B0
:10242000F1E7203350F82330FFDE00BFAC98000006
:102430004209022A034670B503D0012A18D0CAB156
:1024400070BD0E4E326951680029F9D0012503F0A4
:102450001F030C689D400029F2D08A682A4002D0F0
:1024600030464B6898473CB1236821461C46F2E74A
:10247000034EE7E7034EE5E72346F6E7688D0000E5
:102480004C8D0000308D000038B54568A868C0B19B
:1024900005F0D5F90146A0B9A86800F0B9FD0446D9
:1024A00088B902460949A86805F0B3F92246012116
:1024B000DB20FFF771FA2246012140F20D10FFF7F1
:1024C0006BFA002038BD6FF00400FBE731240000F8
:1024D000F0B544681646A068227C01F01F0587B05D
:1024E00045EA421500286CD0B6F5001F04D12946F4
:1024F00005F0FFF9002055E06268607CB6F5800FBA
:1025000050624FF0000001AA0190506039D1B3F140
:10251000007F14BF052304238DF804300023CDE988
:1025200004230393E3680DF1030723FA01F111F08B
:10253000010139D1B6F1A07F36D105F01F037F2DFF
:102540004FEA551003F120033ED8214A52F82020CB
:1025500052F82330DB0727D43A462946A06805F015
:102560005BF9163018D002972946A06803AA05F037
:1025700097F8002816DB01222946A06805F067F9C4
:10258000B8E7B3F1C06F05D0B3F1007F14BF0123EA
:102590000223C1E70323BFE73946A06800F07AFDB4
:1025A0000028E0DA07B0F0BD3A462946A06805F0F9
:1025B00033F90028D8D19DF80310A06800F060FD21
:1025C000D2E76FF08500EDE751F82330FFDE00BF62
:1025D000AC98000070B40D4CD4E90065901B63EB1F
:1025E0000501400940EAC1604101891945EBD06508
:1025F000C4E90015002400250549C1E90023054B65
:10260000C3E9004570BC01F02FB900BF40030020B2
:10261000280300203803002008B500220121E4200F
:10262000FFF7BAF9164A0020D2F8183723F44033DE
:10263000C2F8183700F09CFE002820DB0120114969
:1026400000F022FF00281ADB00F06AFE0E4B20F09B
:102650001F00C3E900010D4B0022C3E900014FF048
:10266000FF304FF0FF310A4BC3E90001094B0A4923
:10267000187A00F067FE67220020084B1A6008BD38
:1026800000200E50BC020020400300202003002048
:1026900028030020B4020020D525000034190020B2
:1026A00010B500F043FF0120FFF720FD04F080FB90
:1026B000BDE81040054B064A1B684FF47A70B3FB27
:1026C000F2F35843034B43F001031847C0020020C4
:1026D00040420F0040970000F7B5224B0146224FC1
:1026E000187A224BD7E90056D3E900239E4208BF4F
:1026F000954211D1B1F1806F0ED24901012938BF45
:10270000012101224D1946F10006C7E9005603B028
:10271000BDE8F04000F096BF154BDFF858C0D3E994
:102720000043DCE9002CA41843EB0C0C4FF0200E06
:1027300022466346C1FB0E23954276EB0301C7E9AF
:1027400000230DD2291B66EB0C04C82974F1000488
:10275000B4BF01210021009100F03CFF03B0F0BDA7
:102760000021F8E7B40200203003002028030020F5
:1027700040030020380300204FF40061014801F0BD
:1027800001BA00BF39210020F0B585B06E468168DE
:102790000546103921F00F0404F08CFB32460A4B39
:1027A00003F1100C374618685968083303C76345AE
:1027B0003E46F7D110232146284604F05FFB00383F
:1027C00018BF012005B0F0BDB69B000030B50D4626
:1027D000816887B0102302AA1039044604F039FB3F
:1027E000002802DA012007B030BD1022204602A9DD
:1027F00004F045FD00283AD110221E4902A806F037
:1028000051FA00280CBF012302232B70204604F04C
:1028100022FD012301460DF10702204604F019FBB9
:102820000028DFDB9DF80730204603F00F021B096C
:102830006A702B7101220DF1070104F020FD10B91F
:102840006B78042B03D901236B7000232B71A268D2
:102850002046203A22F00F02103AA91C04F022FD73
:102860000028BFD12046E91C04F075FDBBE7032317
:10287000CBE700BFB69B00007FB5264D44006946FC
:1028800055F8240004F06DFD002835D1013455F8C9
:10289000240002A904F065FD01282BD103238DF843
:1028A00008308DF80B3000249DF800509DF808602A
:1028B000194A2946107804F0D4FC18B331465078F0
:1028C00004F0CFFCF0B19378042B03D09DF80310F3
:1028D000994217D1D378042B03D09DF80B1099425D
:1028E00010D11379042B09D15079831E022B03D800
:1028F00004B070BD0028D6D0FF20F9E79DF8021083
:102900009942F1D00134032C02F10602D1D1012009
:10291000EEE700BFF8980000529C000003689A0799
:102920000CD50368DB070DD50922074BC3F80C252E
:102930000F22C3F8042501221A60FEE7034B03604F
:10294000EF3B0360704700BF00801050F000FA506A
:1029500008B501232E4A2F48C2F80038A2F55722A5
:10296000D2F800242C4AD2F84023292A04BF2B4A4B
:10297000C2F80C34FFF7D2FF0830FFF7CFFF083062
:10298000FFF7CCFF0830FFF7C9FF00F5F470FFF741
:10299000C5FF234AD2F88C3043F44063C2F88C3030
:1029A0000022D30003F57F0303F54043D3F800145E
:1029B00001310AD0D3F8001439B1D3F80014013230
:1029C000D3F80434402A0B60EBD1164BD3F8002621
:1029D000D20717D4144BD3F8182522F00302C3F8FA
:1029E0001825D3F81825C3F818250D4AD2F88C30CD
:1029F00043F44063C2F88C300C4AD2F80034012B07
:102A0000FBD008BD6FF00102C3F80026E2E700BF6B
:102A10000000125000F50E5000C0FF0000300550BD
:102A200000ED00E000E0105000E004500090045081
:102A3000014B1B68184700BF38190020014B0720C5
:102A40001B6818473819002010B5104C2379D3B9EA
:102A5000012323710E4B0028206018BF184600F098
:102A6000FDF890B923680B48002B08BF184600F00A
:102A700041F850B923680848002B08BF1846BDE844
:102A8000104000F081B96FF0770010BD38190020B8
:102A9000312A0000397400003D2A000008B5074BB8
:102AA0001B6853B14FF48770FEF768FF28B9BDE883
:102AB00008404FF48770FEF73FBF08BD381900206B
:102AC00038B504230A4C42F21075C4F808330123C8
:102AD00063610023C4F80831D4F80831D4F84C34C9
:102AE000DB0304D5012004F072FC013DF6D138BDB2
:102AF00000E01050064A13793BB9012110601171B2
:102B0000044A1846C2F8403470476FF077007047A7
:102B10004019002000E0105010B51D4B1D4CD3F89B
:102B20004C14D3F84C2411F4803F18D002F0030267
:102B3000012A03D00AB1FFF7C3FF0022144BC3F8E8
:102B400040240022C3F80821D3F8082101221A6189
:102B5000226872B9D3F80821002AFBD011E0D3F81B
:102B60004824D107E9D5D3F850249207E3D422684A
:102B70001AB10422C3F8042310BDD3F80821002A97
:102B8000FBD00022C3F80821D3F80831F4E700BFD6
:102B900000E0105040190020F8B50125184C194EDE
:102BA000D4F80C3303F00C0303B9F8BDB3FA83F384
:102BB0000027C3F11F039A0002F5807292B202F15E
:102BC000A04202F58712176005FA03F1022B126882
:102BD000D8B2C4F8081310D1D4F84C34D4F84C341B
:102BE0009B070AD10423C4F84054C4F80433256178
:102BF000D4F80C3303F00C03D6E733689847F7E7B3
:102C000000E0105040190020712238B5104B00210F
:102C1000C3F80823012242F210745A60C3F800116D
:102C2000D3F800110B490A4DD1F84013292908BFE8
:102C3000DA60D5F80C3413F4803305D0012004F0A9
:102C4000C6FB013CF5D138BD034A5371FBE700BF19
:102C500000E0105000C0FF0048190020054B02465C
:102C6000187918B91A6001221A7170476FF077004D
:102C7000704700BF481900200022164BC3F81021EE
:102C8000D3F81011C3F81821D3F81811C3F8142180
:102C9000D3F814111049D1F84013292904BF012198
:102CA0009960C3F80021D3F8002101221A600B4A71
:102CB000126852B9074BD3F80021002AFBD000223A
:102CC000C3F80021D3F8003170477122C3F8042300
:102CD000704700BF00E0105000C0FF0048190020FE
:102CE000F8B50126194C1A4DD4F80C3303F07103D2
:102CF00003B9F8BDB3FA83F30021C3F11F039A00AF
:102D000002F5807292B202F1A04202F587121160C0
:102D100006FA03F7042B1268D8B2C4F8087308D077
:102D2000062B10D02B689847D4F80C3303F07103AE
:102D3000DEE702236B71C4F81411D4F81431202398
:102D4000C4F80433EEE76971ECE700BF00E010500F
:102D50004819002038B580230A4C42F21075C4F897
:102D600008330123A3620023C4F81C31D4F81C31BA
:102D7000D4F86C34DB0304D5012004F028FB013DBA
:102D8000F6D138BD00E01050054B0246187918B94D
:102D90001A6001221A7170476FF07700704700BF08
:102DA0005019002000220C4BC3F81C21D3F81C2121
:102DB00001225A62094A12681AB18022C3F8042318
:102DC0007047D3F81C21002AFBD00022C3F81C2135
:102DD000D3F81C31704700BF00E01050501900209C
:102DE000094BD3F8042312060DD5D3F81C2152B198
:102DF0000022C3F81C21D3F81C218022C3F8082329
:102E0000024B1B681847704700E010505019002013
:102E1000036803F01F027F2B02604FEA53129ABF30
:102E2000024B53F822000020704700BF00990000B9
:102E3000034A4309D35C00F01F001844C0B2704736
:102E4000649C0000F0B58446002587B0DFF848E0B8
:102E5000124F019102AE1EF8013B06AA02EBD3020B
:102E600012F8144C03F00703DC4014F0010406D1FF
:102E70000135042DEFD10024204607B0F0BD97E8BE
:102E80000F0086E80F0056F82520136A4CF825300D
:102E90001362002BECD0EFE7749C00001097000049
:102EA000F7B504460846FFF7C3FF06B204EB460633
:102EB000B38A0D46DB072BD5204604F0CEFB29460E
:102EC000204604F03AFB58B1204604F04CFB0022A7
:102ED000276800B207EB8003C3F81025C3F810255C
:102EE0002946204604F068FB002101A8B182019523
:102EF000FFF78EFF019B00EB8300D0F88020064B8C
:102F0000134043F00203C0F88030084603B0F0BD20
:102F10006FF01500FAE700BFF0F0FCFF2DE9F04379
:102F2000044685B0084616461D46FFF781FF0F464A
:102F3000804636B3204604F00BFB18B9204604F057
:102F4000FCFA28BB0FFA88F904EB4909B9F81430E8
:102F500013F01C0F02D07378012B19D001238DF8C8
:102F60000F3000233846CDE90063721CB31C0DF10D
:102F70000F0104F08AFAB9F8143043F00303A9F8FA
:102F80001430002D40D03946204604F0E1FA20B933
:102F90006FF0150005B0BDE8F083002229782368A2
:102FA0004FEA810C03EB8103C3F81025C3F8102509
:102FB0000FFA88F204EB4202938A23F4604323F071
:102FC000200393826E78FEB12468A8786444D4F814
:102FD00010550E4B36042B40C4F8103541F6F073F3
:102FE00006F4403603EA07130005D4F810553343BE
:102FF00000F4801003432B43C4F81035938A43EA4E
:10300000413343F0200393820020C3E70FE0ECFF3D
:1030100070B590F8B040054690F8B1604CBB842282
:103020002146143005F036FE2146134A2B6852F82B
:1030300036608E4213D1002440F20D10C3F8444193
:10304000D3F844210D4A934208BFDB20FEF774FCFD
:103050000123204685F8B030C5F89C3070BDCAB257
:10306000920002F58070442A04BF1C501A580131A6
:10307000DFE76FF07700F1E71099000000A00D5036
:1030800090F8B100024B03EB800004F0BCB900BF24
:10309000C402002010B5064B90F8B1000C4603EBBB
:1030A000800004F096F90028A4BF2070002010BD15
:1030B000C40200202DE9F04F814659F8043B8DB041
:1030C000D3F8141390F8B14000936C4BC9B241F49B
:1030D0000031804653F83420009804F097FA8103B9
:1030E00005463BD51022002108A805F0D3FD634B0F
:1030F00008A803EBC4035B6819460193FFF7A2FE1F
:10310000042303EBC40303934FF0000B5C4B0DF15E
:10311000200A0293029A594912F8013B0292039A3B
:1031200002EBD3028A5C03F0070322FA03F3DA0707
:103130001AD40BF1010BBBF1040F0AF1040AE9D117
:103140004FF400310022009804F060FA019908A8B9
:10315000FFF778FE0028D7D125F400350124002D93
:1031600075D10DB0BDE8F08F464B5B440493DAF89F
:1031700000100029DDD091FAA1F1B1FA81F1049B90
:103180001C7841EA44142046FFF752FE08EB400049
:10319000878AC808BB08059301231AF8002001F0AC
:1031A000070103FA01F122EA01020AF8002007A848
:1031B0000794FFF72DFE079A059B203250F8222036
:1031C000C7F382065B073746C2F3014223D5484660
:1031D000D6B221463A4604F0D0F907A80794FFF783
:1031E00017FE079B203350F82330C3F301439E4260
:1031F00007D10021204604F091F93146204604F021
:103200008DF907A80794FFF703FE0122079B02FA36
:1032100003F30362ABE7022A0DD10321204604F039
:103220007DF906F00503012BEBD13A4621464846CD
:1032300004F0A3F9E5E702212046059204F06EF9B7
:10324000032EF2D0059A032ADBD1022EECE795FA81
:10325000A5F3B3FA83F3009904FA03F225EA020511
:1032600003F5A27251F8222008EB43034846B3F855
:10327000A010C2F3014204F080F970E71099000039
:10328000749C0000749C00000123034A03FA00F0C0
:103290009368034393607047A00000200123044A11
:1032A00003FA00F0936823EA00039360704700BFBD
:1032B000A000002073B504460191EFF3118620238E
:1032C00083F31288BFF36F8F0B4D019B6A6801A8CF
:1032D0001340019304F07DF8002807DB01226B689E
:1032E000824023EA02036B602070002086F311887D
:1032F000BFF36F8F02B070BDA0000020074B027AB1
:10330000D3F8101521F001010A43C3F81025026813
:10331000C3F8A4264268C3F8AC26704700200E50BC
:103320004FF0FF306FF0404130B5054CD4E9002339
:10333000904271EB0305F9D31046C3F3130130BD7E
:1033400040270E5030B50C25074B1C1894F85440FC
:1033500005FB0433C3E9031218750123034A8340B4
:10336000C2F8243330BD00BFA000002000200E5062
:10337000F0B53D4D85B02C78002C6FD13B4A01ABA8
:1033800007CA83E807003A491846D1F8102522F009
:103390000202C1F81025FFF7B1FF0723672202F0F0
:1033A00001012144013BCCB24FEA5202F7D1052C76
:1033B00057D119464FF0010C2B4E00246720CFB295
:1033C00004E00CFA02F220EA0200013490FAA0F2C2
:1033D0005FFA84FEBE45B2FA82F2F2D30131327551
:1033E00005292A4482F8547006F10C06E5D1012122
:1033F000002420489A0801FA02F212F0670F18BF61
:103400001C500433302BF5D1E420FEF795FA184B0D
:103410001949D3F8102503F5C07322F00202C3F84E
:10342000902340F6FF72C3F8A82100221A60A3F58A
:10343000807004338B420260F8D101240C4B0F4A98
:103440001C660F4B5D201B68B3FBF2F358430D4B1A
:103450002343984700202C7005B0F0BD6FF0770033
:10346000FAE76FF08B00F7E7A0000020209700003C
:1034700000200E5000210E50B0210E5040420F008F
:10348000C00200205097000038B5254B0C46D3F8F9
:10349000102595073DD4D3F8102542F00202C3F859
:1034A0001025C0B1D3F8482712F0010202BFD3F8AB
:1034B000481741F00101C3F84817194BD3F84017DA
:1034C000D3F844174900F9D42AB9D3F8482722F091
:1034D0000102C3F84827134B134A1B681049B3FB7A
:1034E000F2F303EB4313BBB1D1F84027D1F84457B3
:1034F00015F080450BD14FF0FF312046FFF7DAFE83
:10350000002803DB2078FFF7BFFE284638BD013BCB
:10351000E9E76FF07700F9E76FF07300F6E700BFB7
:1035200000200E50C002002040420F002DE9F0475D
:10353000264D67232E4656F8044F4FF00009E4430A
:103540004FF00108224F04F06704C7F828335FFAF0
:1035500089F1DCB9E420FEF7FDF91D4BD3F84827CB
:1035600022F00102C3F84827D3F8102522F0010207
:10357000C3F81025D3F8102522F00202C3F8102555
:1035800001225A669A662C70BDE8F087AB6808FA8B
:1035900001FA0AEA030313F0670F02D00846FFF7A7
:1035A0007DFE6B68DB4303F0670313EA0A0F09D063
:1035B000002207EB0113C3F82C25E30702D53046A0
:1035C00003F021FF640809F10109C0E7A000002011
:1035D00000200E5070B51D461446184A9DF8106024
:1035E000131893F8543000B20C3302EBC30142F8C5
:1035F00033404D60C5F31301AEB10201104E02F12C
:10360000A04202F562228000C2F820450644C2F8BA
:103610002415336833B1FFF783FEA042A94101D2DC
:103620000023336070BD030103F1A04303F562235F
:10363000C3F82045C3F82415F4E700BFA00000201C
:1036400000210E50F0B50E4D2B1893F854300001A8
:103650000C3355F8334005EBC3077E68641800F15E
:10366000A04021F0004146F1000641EAC27100F598
:10367000622045F833407E60C0F82815F0BD00BFD9
:10368000A0000020F7B5284B284CD3F82C6304F198
:1036900088070EB903B0F0BD96FAA6F00123B0FA80
:1036A00080F08340DA43224926EA0306231893F880
:1036B0005450830019440C2303FB0543DB6873B3A8
:1036C000D7E8EF3F03EA020CC7E8EECFBEF1000FE8
:1036D000F6D1C340DB0719D5020102F1A04202F581
:1036E0006222D2F82435D2F82025D1F800C0BCF1EE
:1036F000000FCED04FF0000CC1F800C00C2101FB30
:10370000054529690091E9688847C2E705F10C037E
:1037100004EBC30C54F83320DCF80430E5E70A6806
:10372000002AB6D00B60B4E700200E50A0000020A5
:1037300000210E50044B40EA0120C3F80005D3F8E5
:103740000024D207FBD5704700E0045038B50A4B7F
:1037500053F82040013053F82050A54200D838BD1E
:10376000606830B1037EDB0701D404F0CBF8083485
:10377000F3E723689847FAE720990000012208B58B
:10378000084B03201A70FFF7E1FF04F015F904203D
:10379000FFF7DCFFFCF7CCFE034A137B23F00103A9
:1037A000137308BD392900204803002008B5002004
:1037B000FFF7CCFF174B03F5006282F3088883F311
:1037C0000A880025E023144C84F82230E57725761A
:1037D0006576A57684F82050636A43F4E02363623B
:1037E00084F82350FEF714F8FEF72CF94FF0FF335E
:1037F000A362E362FEF748FAFEF74AF90120FFF7F9
:10380000A5FF0220FFF7A2FF2B462A4629460348C0
:10381000FEF7FAF84029002000ED00E07D370000B7
:10382000024B1868984208BF00207047CC02002065
:1038300030B570B10B4B5B6898420AD0036843B156
:10384000D3E90421D0E90445121941EB0501C3E98C
:103850000421D0E9003213605A600023C0E900332C
:1038600030BD00BFCC0200202DE9F047EFF31185F9
:10387000202383F31288BFF36F8FDFF89C9000261C
:10388000C9F800000027FFF7CBFFDFF89080D9F8D8
:103890000030D8E900ECD91750B1D0E90442A34276
:1038A00071EB020A19DAE41A62EB0102C0E9044280
:1038B000002413EB0E034CEB01012046C8E9003154
:1038C000C9F8004004F061F82146FEF705FF85F3D2
:1038D0001188BFF36F8FBDE8F08714EB0E024CEB3D
:1038E000E473C0E90467C8E90023FFF7A1FF85F38B
:1038F0001188BFF36F8F83689847EFF311852023FA
:1039000083F31288BFF36F8FD9F800301B1BC9F8FF
:103910000030FFF785FFBAE758190020C8030020E0
:1039200001680E4A0346914215D1C169A2F11022E5
:10393000A2F1EF1291420ED18268012A0BD8C2681F
:1039400012B101698A4206D0586928B19B691B1AD5
:103950005842584170470120704700BF55AA00FFE8
:1039600070B50D4B9E68A6B13046FFF7D9FF0446EF
:1039700078B9F3686BB935690DB9204670BD284632
:10398000FFF7CEFF28B9EB68B34202D12E462D696E
:10399000F2E70124F1E700BF5C190020F8B5384DCB
:1039A0002B68EE68D3B1AB68C3B1002860D00029A2
:1039B0005ED001FB00F4B4FBF0F0884258D1211D29
:1039C00056D8A2070CD024F003020432334603E099
:1039D000586890424ED29B69002BF9D11846F8BD29
:1039E0002246F3E7801A232803F120061CD801227F
:1039F0009A60D3E90512A9B18A619A690AB1596935
:103A000051610022C3E905222B69DB0703D5FFF7CB
:103A1000A7FF002831D122460021304605F03AF9AF
:103A20000346DBE7EA60E8E702F1200C03EB0C0158
:103A30002038C1E90107CB601869124F086143F8CB
:103A40000C70A7F11027A7F1EF17CF6100B1C1608B
:103A5000586948619F698F6140B18161886900B18F
:103A6000416101201961C3E90120CAE7E960F5E776
:103A70000023B3E79F68002FB4D0012002F03EFC82
:103A80005C19002055AA00FF70B50546002840D0FB
:103A90003B4E3368002B3CD0B268002A39D08342B9
:103AA00003D872681344984202D3012002F026FC26
:103AB000A0F120042046FFF733FF0028F5D155F888
:103AC000183C012BF1D155F8143C45F8180C0BB3F8
:103AD0009A68FAB955F81C2C02F120015A680A4478
:103AE0005A6055E905321A6155F8145C2B6903B127
:103AF000DD6020220021204605F0CCF8286908B1BD
:103B000083684BB333699B0703D5FFF729FF002870
:103B1000CBD170BD55F8100C00282AD0836843BB68
:103B20004268636813442033636003692361D4E906
:103B300005239AB9CBB9436963618269A261B3B1C4
:103B40009C61A36903B15C61236903B1DC6020223D
:103B5000002105F09FF8D5E72C46E1E79361A369C2
:103B6000002BE8D062695A61E5E7F360F7E7F4609B
:103B7000E7E7F36845F8083C03B15C61F460C1E72E
:103B80005C19002038B50C46142200210546134864
:103B900005F080F81249134800F034F8232C1CD9A2
:103BA00015F003031FBF043CE418C3F10403ED1830
:103BB00022460021284605F06DF8084B0A49C3E962
:103BC0000054203C9D606C609A6811609A68A1F175
:103BD0001021A1F1EF11D161DA6038BD5C1900202C
:103BE000893A00009D39000055AA00FF014B1B686F
:103BF000184700BFD8020020014B1B68184700BFC0
:103C0000D4020020024B1860024B0020196070475C
:103C1000D8020020D402002010B50A46044619B18B
:103C2000024B00211B68984710BD00BFDC0200203A
:103C30000E4B0340B3F1607F06D1B1F5885F14BF2E
:103C40006FF0860000207047B3F1707F0BD101F454
:103C5000E043B3F5005F06D111F4E06F0CBF6FF0E5
:103C60008600002070476FF0860070470000C07F1C
:103C70008A42F8B506460D4600F0188101F0FE4173
:103C8000B1F1C06F6BD18D4C22F4875121F01F012F
:103C9000A14222F0FF0015D0894988422CD022F49D
:103CA000FF7121F00101B1F1062F2CD004F5C064A1
:103CB000A04207D004F57454A14203D0A4F5844473
:103CC000A1421DD1D1B221BB8BB122F4FF7323F0ED
:103CD0000103B3F1062F06D07A4922F4FF6323F0E3
:103CE00007038B4203D122F4807225F4807595423C
:103CF00014BF00200120F8BDD1B251B9824208D0D2
:103D0000002BE9D1F3E7D1B219B9B2F1062F40F097
:103D1000D1806B4E25F4FF7121F00101B14225F0F5
:103D2000FF0411D006F58856B4420DD0664F25F435
:103D30007F7626F00306BE4206D0644EB44203D01E
:103D400006F57456B142BFD115F0FF01BCD0604EEC
:103D500041F00071B14204BF02462546B4E7B1F11B
:103D6000A06F17D102F0FE43B3F1A06F40F08C803A
:103D700082EA050333F47E1340F086802E0440F17E
:103D80008380C5F30540C2F3054290428CBF0020FA
:103D90000120B0E74F4B9D4209D1A3F500439A4261
:103DA00000F084804C4B22F47E109842A0E7B1F1E1
:103DB000407F69D102F0FE43B3F1407F64D182EAD3
:103DC000050030F47E145FD131462846FFF730FFFE
:103DD00000286DD1414B12F47C1103EA020318D084
:103DE000B3F1607FC2F305413DD13D48D3B243F00A
:103DF000007383423DD003F17E43043B112B01D875
:103E00003848C45C15F47C1FC5F3054333D18C429C
:103E10006EE7B3F1607F0DD13148D3B243F0007348
:103E200083421ED003F17E43043B112BDDD82E4983
:103E3000C95CDAE7B3F1707F19D106F4E043B3F55A
:103E4000005F03D10121C6F30223994006F4E04349
:103E5000B3F5005FD6D10120C6F3022600FA06F4BE
:103E6000D0E71021C1E7B3F1707FCBD1EEE700249A
:103E7000C8E71024C6E712F47C1F01D1A34215D075
:103E80002C0401D58B4281E725F0004323F47F0306
:103E9000B3F1106F0CD102F0FE43B3F1106F07D1F4
:103EA0001248104040F01060A84221E7012022E7AC
:103EB000002020E7002B7FF416AF18E70003000670
:103EC000000200060040000600040006000900068B
:103ED000FF0000020093C004000140050000C07F05
:103EE00003000002789C0000789C00000000FFF6B0
:103EF00010B578B101F0FE43B3F1C06F32D121F4B7
:103F0000806103F50073994218BF002008BF6FF06D
:103F1000860010BD184A21F4875323F01F039342F3
:103F200002D1C9B20029F1E7144B21F0FF029A42F5
:103F300007D1CBB2002BECD1914218BF6FF08600B5
:103F4000E7E721F4FF7323F00103B3F1062F0CD050
:103F50000B4CA242E5D00B4A9342E2D0A2F5844238
:103F60009342DED06FF08600D3E7CBB2002BD0D1E6
:103F7000B1F1062FE1E700BF0003000600020006D2
:103F800000090006004600062DE9F04788469246E3
:103F90001C4600F0CFFA064600283CD1D8F8007045
:103FA000B7F8009009F4E043B3F5804FBB6808BF51
:103FB0002AF0010A3AEA030325D164B3BAF5006F87
:103FC0002CD0AAF50052D2F1000A4AEB020A2A4B81
:103FD00024F0FF029A4224D114F0FF0504D0274BAD
:103FE00045F000759D423BD0534622464846F9684D
:103FF000FFF73EFE054670B95346224648463969EA
:10400000FFF736FEA8BB6FF0840600233846C8F8D9
:10401000003003F0CEFE3046BDE8F0874FF0010AD5
:10402000D5E7174B9A42D7D0A3F588539A42D3D0FD
:1040300024F4FF7323F00103B3F1062FCCD0114910
:104040008A42C9D0104A9342C6D0A2F58442934214
:10405000C2D004F0FE43B3F1407F04D12304C3D5A2
:104060006FF08606D1E7B3F1A06FF7D0034B9C4207
:10407000B9E72E46CFE700BF00030006FF000002AD
:1040800000130006000900060046000613B50446AA
:10409000F0B101A900F04EFA0446C8B90198037FB7
:1040A000022B18D1032303770379FF2B16D0436922
:1040B0000C4A03F14043A3F58053934202D800F029
:1040C000FDFB0446019803F05FFE002818BF04467C
:1040D000204602B010BD6FF09604F3E76FF0840441
:1040E000F0E700BFFFDFFF3F2DE9F041164698469D
:1040F000002288B0038805460F46CDE904220796C2
:10410000C8F80020002E62D0B6F1005F80F0A680D3
:1041100023F0FF03B3F5E24F02D0B3F5824F21D174
:10412000284603F057FC0446002840F09080EB68D6
:104130006BB16B885BB1288800F44F42B2F5824FB7
:1041400005D1C0B2222837D02ED8122839D03A460D
:104150000023F11912F8010B914243EA0003F9D14F
:10416000002B34D0284605AA04A903F0C6FC044657
:10417000A0B9049B9B6A6BB3049B39465A882846B6
:10418000069206AA029203F1280201929A6A00920C
:104190005B6A324600F00EFB044680B304980028A8
:1041A00055D003F055FD52E02738C0B21B28CED8B9
:1041B0002C4AC240D207CAD50733B6EBD30FC6D2BA
:1041C00005E040F209229342F6D1402EBFD86FF0AD
:1041D00086043CE06B681B0A07D10799049803F03A
:1041E000F7FC04460028C7D0D8E7324639462846AF
:1041F00007AB00F0AFFA04460028EED0CEE70499F2
:10420000069B4A88E2B94B804FF6F8720699049BE8
:10421000914220D82A8812B11988914212D16A8815
:1042200012B1598891420DD15A69C8F800201A7FFD
:10423000012A0AD000236FF09604C8F80030ADE7D9
:104240009A42E1D06FF08604A8E702221A7720464E
:1042500008B0BDE8F0816FF085049FE76FF085043A
:10426000F5E700BF0102000C2DE9F04117461C469E
:104270002A4A23F4875323F01F03934205460E4630
:1042800098B00ED0264B24F0FF029A4240D024F47E
:10429000FF7323F00103B3F1062F13D021498A42A3
:1042A00007D1E3B25BB114F0FF0011D040F0007011
:1042B0000EE01D4A9342F4D01C4A9342F1D06FF0B5
:1042C000850022E014F0FF00F0D1B4F1062FF6D102
:1042D000DDE91E1207AB019340230DF12008009386
:1042E000434600F0CBFA80B9239B3A460593229BC4
:1042F00031460493219B28460393209B0293079BFE
:10430000CDE90083234600F003FA18B0BDE8F08140
:1043100014F0FF00CAD19442D9E700BF00030006A1
:104320000002000600090006004600060004000620
:1043300010B5124C2378590744BF23F004032370AF
:1043400023789A0705D500F099F8237823F0020323
:104350002370637813B10A4803F05BFD0023042146
:1043600007486370FFF758FC2378DB0705D503F097
:104370002DFD237823F00103237010BD7019002058
:104380007419002038B51C4D6A782B78022A01D1A7
:10439000072B12D0D80713D52B78990707D400F034
:1043A00065F82B78044643F002032B7088B96A78CD
:1043B0002B788AB12B785A0719D50024204638BDAE
:1043C00003F002FD2B78044643F001032B70002814
:1043D000E2D0FFF7ADFFF1E7DB07EBD5074803F0CD
:1043E00016FD022304466B700028F2D1E2E743F089
:1043F00004032B70E1E700BF70190020741900203E
:1044000000F140431F2B70B505460E460CD82C22F8
:10441000154C02FB0344237F022B02D163698342C4
:1044200018D06FF08B001AE0012103F09CFCB8B1AA
:104430000D4B00221C46197F022902D15969A9425D
:1044400005D00132202A03F12C03F4D1E9E72C2313
:1044500003FB0244204603F079FC00B9346070BDD0
:104460006FF08700FBE700BF781900200122024BA4
:10447000002083F880257047781900202DE9F0414D
:104480000A4C002526464FF0010803272046C4F8B1
:1044900020802777013503F0DBFB202D04F12C046D
:1044A000F4D1002386F88035BDE8F081781900202A
:1044B000F8B51E4D064695F880350F467BB30024AF
:1044C0002B462246197FD1B13CB9022905D1196A80
:1044D00019B91979002918BF1C460132202A03F1A5
:1044E0002C03EFD114B96FF08C0006E0204603F0E6
:1044F0002DFC204603F0ACFB10B100240DE01C465F
:10450000237F7BB90123237736B1094B651BAD109F
:104510005D4305F18045356000203C60F8BD6FF0DB
:104520008800EAE76FF09600E7E700BF78190020FF
:10453000A38B2EBAF0B50027544B0F6093F880354B
:1045400005460E4691B0002B00F09C80FFF758FF07
:1045500010F18C0F044640F08E8031463846FFF74C
:10456000A7FF0446002840F08680012233680146F8
:104570005D61336809A85A601C22356804F08AFB23
:10458000002200236869CDE90623414A00F1404337
:10459000A3F580539342CDE90444039405D92846FA
:1045A00003F056FB6FF0870420E006AA03A903F08E
:1045B00032FC0446002837D1039B6A690A93DBB2B8
:1045C000002B08BF00220346CDE90000DDE906010B
:1045D0000E9209AA00F036F910F18A0F044608D0AD
:1045E00030680CBB03F034FB6FF09604002333609B
:1045F00041E004A909A800F0C5F80446A0B928467E
:10460000049903F0E5FA044670B9DDE9060105AB4B
:104610000193AB6A09AA00936B6A00F013F9044690
:1046200048B1284603F009FB306803F011FB14F190
:104630008C0FDBD1B6E72C46059BAB6209AD0FCDE5
:104640000FC495E8070084E8070033689A68D0042F
:1046500014D49A68910444BF42F400629A603368AB
:104660001A7F012A04BF02221A77306803F06EFB1A
:1046700004460028BAD1204611B0F0BD42F4806251
:104680009A60E6E76FF08804F5E700BF781900202C
:10469000FFDFFF3F2DE9F04F044687B00D46DDE90F
:1046A0001078DDE913B9416817481646129AB0EB45
:1046B000112F0492DDF854A04FEA112203D01349C0
:1046C0008A4200D06AB9324629462046CDE9029A8C
:1046D000CDE90078059303F0B2FC10F1860F059B3D
:1046E0000FD1049A2946CDE9118220463246CDE900
:1046F000149ACDF84CB0109707B0BDE8F04FFFF713
:10470000B3BD07B0BDE8F08F004E80004B4E800077
:104710002DE9F041DFF834804568DDE90667B8EB44
:10472000152F4FEA1524DDE90ACE03D0084DAC421F
:1047300000D03CB9CDE908CECDE90667BDE8F0412F
:1047400003F099BC6FF08600BDE8F081004E800058
:104750004B4E8000194610B4002443680C60074C8F
:104760001A0AB4EB132F02D0054B9A4202D110BCA7
:1047700000F0F2B96FF0860010BC7047004E800068
:104780004B4E800010B4002443680C60074C1A0A9A
:10479000B4EB132F02D0064B9A4202D110BC00F0AA
:1047A000DBB96FF0860010BC704700BF004E800080
:1047B0004B4E80002DE9F04FDFF880B0D0F804E0D8
:1047C00085B0BBEB1E2F0446DDE90E890D4616466B
:1047D0001F46DDF840A04FEA1E2C1CD0DFF860E039
:1047E000F44518D0BCF1000F22D1CDE9019ACDF8E3
:1047F000008003F060FD10F1860F1BD13B4632466E
:1048000029462046CDE90F9ACDF8388005B0BDE89D
:10481000F04F03F0F0B93B46324629462046CDE939
:104820000F9ACDF8388005B0BDE8F04F03F043BDD6
:104830006FF0860005B0BDE8F08F00BF004E80002D
:104840004B4E8000F0B4DFF82CC05468DDE904560C
:10485000BCEB142F4FEA142702D0074CA74204D117
:10486000CDE90456F0BC00F0D7BB6FF08B00F0BC74
:10487000704700BF004E80004B4E800010B4054CC6
:10488000A04202D010BC03F025BC6FF0850010BC24
:10489000704700BF05000002074B10B5994204465F
:1048A00006D0043003F050FC08B90523236010BD86
:1048B0006FF08500FBE700BF050000024268044B73
:1048C000B3EB122F01D103F017BD6FF085007047D5
:1048D0004B4E800010B50D4C207804F0B3F90C4A13
:1048E0001368591C11605BB90A4A5920D2F8003488
:1048F00043F00703C2F80034FDF71EF801F084F816
:104900002078BDE8104004F09FB900BF3A2900208C
:10491000FC1E00200090055038B5164D287804F094
:1049200091F9154B1C68013C1C60ECB95920FDF74E
:1049300011F80722114BC3F80823D3F8002422F002
:104940000702C3F80024C3F80041D3F80021C3F8DC
:104950000441D3F804214FF00072C3F80841D3F8A2
:104960000831074BC3F888212878BDE8384004F0A7
:104970006BB900BF3A290020FC1E002000900550B2
:1049800000E100E070B5104D104E2B68B3420DD021
:10499000FFF7A0FF01F05CF901F022FA40B103F04B
:1049A0003CFA0446FFF7B8FF44B92E60002405E046
:1049B00000F00AFD044618B1FFF7AEFF204670BDB7
:1049C00003F043FDEDE700BFE00200201173650036
:1049D00000230B6010F0FF0310B514D043F00073F8
:1049E00003F17E43053B102B0DD801220B4C9A405E
:1049F000224203D1062B06D1094B0B600B6853B939
:104A00006FF0850006E000F0FE40B0F1007FF7D0C7
:104A10006FF0860010BD0020FCE700BF3978010070
:104A2000549900000022074BC3F81021C3F80C2151
:104A3000C3F80021C3F80421C3F80821C3F81821E2
:104A4000704700BF0090045008B5FFF7EBFF01234B
:104A50000360104B0A6832B9D3F80C211AB9D3F8A5
:104A60000821002AF6D00B687BB90B4B99420ED077
:104A7000A3F58473D3F80831002B0CBF4FF0FF303F
:104A80006FF00200FFF7CEFF08BD0020FAE74FF0FD
:104A9000FF30F7E7009004500891045038B5054600
:104AA0000C4691B10021012002F025FF0848094978
:104AB000C0F80055C0F80445FFF7C6FF00210446C2
:104AC000084602F018FF204638BD6FF00104FAE7EF
:104AD0000090045000910450034B0449C3F80005B2
:104AE0000348FFF7B1BF00BF009004500491045089
:104AF0000490045010B504460021012002F0FBFE92
:104B0000064B0749C3F800450648FFF79DFF002103
:104B10000446084602F0EFFE204610BD0090045007
:104B2000089104500890045038B50C4659B1074D0F
:104B30000749C5F800050748FFF786FF10B9D5F803
:104B40000835236038BD6FF00100FBE7009004508A
:104B5000109104500C90045070B51C4E44680288AB
:104B6000B6EB142F43884FEA142513D14069184B34
:104B700098420BD003F5FF437D330344012B02D849
:104B8000B2F5105F20D06FF0860016E047F21213E6
:104B90009A42F7E70F488542F5D102F44F40B0F54D
:104BA000824F0BD144F21210073382424FEAD303F3
:104BB00001D15B00013300200B6070BDB2F5885F4E
:104BC00002D10733DB08F6E70223F4E7004E80004A
:104BD00001C0FF7F4B4E80002DE9F0478046002446
:104BE0004FF010091E4E94B00DF1270525F01F055A
:104BF00006F1200A012210211A4803F079F92B1935
:104C000000935246102320211548CDF8049000F05F
:104C100013FD0746F8B9D6E90C321034013342F1DE
:104C20000002302CC6E90C32E4D1B8F1000F04D0F8
:104C300022464146284603F04EF92E46084C0FCE38
:104C40000FC496E80F00203584E80F0095E80F00A8
:104C5000103484E80F00384614B0BDE8F08700BF78
:104C6000D0030020F0030020F0B5194D194FAB6BB5
:104C70008DB0BB4229D0184E307803F0E3FF4023BB
:104C800000221946284603F091F93021684603F0C6
:104C9000AEF9044678B96846FFF79EFF044690B91E
:104CA000302302461946684603F080F901220023AA
:104CB000C5E90C23AF63307803F0C6FF204603F04C
:104CC000ACF80DB0F0BD0E24F5E70020F9E700BF09
:104CD000D0030020B4A5B4A53B2900202DE9F04F56
:104CE00099B00DF1570802F10F0982460E4614469D
:104CF00028F01F084FEA191922B1002969D0B2F52E
:104D0000005F66D8344F354D387803F09BFFD5E906
:104D10000C3213430BD15046FFF7A6FF834630B148
:104D2000387803F091FF584619B0BDE8F08FD5E907
:104D30000C2319EB020943F10003B9F5803F73F12D
:104D4000000314D3302102A803F051F9B8B902A826
:104D5000FFF742FF83460028E2D13023024619467E
:104D600002A803F023F900220023C5E90C23DFF891
:104D700070A03CB92046FFF72FFF8346D0E76FF0C5
:104D8000920BCDE7102C4FF001024FF0100150466E
:104D9000A14628BF4FF0100903F0AAF8102352468D
:104DA0002021CDE900830D4800F046FC8346002811
:104DB000B6D14A463046414603F05FFFD5E90C3292
:104DC000013342F10002C5E90C32A4EB09044E4460
:104DD000CFE76FF0860BA6E73B290020D003002029
:104DE000F00300202DE9F04782B099460B889046E9
:104DF00023F0FF0200AFB2F5824F0C46BE6AD7F82F
:104E000038A008D0B2F5E24F05D06FF08500083722
:104E1000BD46BDE8F08726F4FF7222F00102B2F130
:104E2000062F0ED07A4A96420BD002F20B1296420F
:104E300007D00A32964204D026F0FF01153A91427B
:104E4000E3D1A268D8B912F4005F00F0DA8044F22E
:104E5000010223F44051914203F44F4012D1628881
:104E6000D2081032073222F00702ADEB020D002209
:104E7000B0F5824F6D4661887A601CD16AE012F409
:104E8000006FE2E7B0F5844F04D162880732D208A0
:104E9000E8D1BAE7B0F5884F0FD16188CB1DDB08A8
:104EA00003EB430308336A46DB08A2EBC3039D46CA
:104EB00000236D467B6000234CE0B0F58E4FE4D0BC
:104EC000B0F5824F18D1D8B24228618804D101F1DF
:104ED0000802D208073206E0CA1D41284FEAD20272
:104EE0005FD0520008326846D208A0EBC202954655
:104EF00000226D467A602DE0A3F58043023B0B2B28
:104F000083D801A252F823F0394F00000B4E000065
:104F1000794F00000B4E00000B4E0000834F000045
:104F20008D4F00000B4E00000B4E0000974F00000D
:104F30000B4E0000974F00004FF4A07261884B09A0
:104F400053436A462733DB08A2EBC3039D46002385
:104F50006D467B603A1DD8B200F0DAFF00287FF47E
:104F600056AF62682B4BB3EB122F1DD16FF00200CE
:104F700002F053FF50B34AE761884FF4C0720B0A46
:104F8000DEE76188CB1DDB081F338CE76188CB1D12
:104F9000DB08233387E76188CB1DDB085B000B331D
:104FA00081E7002A96D130E7194B9E4203D003F2E5
:104FB0000B139E42DAD1238823F0FF03B3F5824F0F
:104FC0001AD14A464146284603F057FE7B685B6883
:104FD000BAEB430F18D10E4B9E427FF416AFBAF1D5
:104FE000400F7FF412AFD7E90C23F96A284603F08B
:104FF0002CFD02F012FF0AE72946404601F0C0F8F6
:10500000B6E76FF0860002E76FF09400FFE600BF9E
:1050100000080006004E800030B4074C041961F10E
:105020000005032C75F1000502D330BC00F02CBA4A
:105030006FF0850030BC7047FF3F00806029F8B5F5
:1050400005460E4618D80E4F387803F0FBFD28466B
:1050500003F0DFF902F0E1FE044640B909493246A7
:10506000284603F00AFE6021064802F0AAFF3878BD
:1050700003F0EAFD2046F8BD6FF08904FAE700BFAF
:105080003C2900200000002008B503789B0705D0CC
:105090000548602102F095FF002008BD03F0D5F916
:1050A0000028F5D00220F8E700000020F7B52249DB
:1050B00043680446B1EB132FDAB239D1032A03D186
:1050C0006FF0840003B0F0BD466901A9F5B228462F
:1050D00003F049F90028F5D16A462146019803F00A
:1050E00017F90028EED10446009FA74219D89DF871
:1050F000043007F0070223F01F0343EA820301A8EC
:105100008DF804308DF80560FFF7BEFF394628465C
:1051100003F044F90028D5D103B0BDE8F04003F016
:1051200055B96019FFF7D8FC0028C9D10134DBE775
:105130006FF08B00C6E700BF4B4E80002DE9F04FAB
:1051400089B007460C4615461E4603F03FF978B96C
:105150007B690090C3F3013262F305108DF8000003
:1051600010F0300007D1B96889070FD06FF08600C2
:1051700009B0BDE8F08F102808D1BDF8023023F443
:10518000F87343F4A873ADF8023071E08949D7F899
:105190000CC08C4547D13B8803F44F41B1F5824F99
:1051A00044D1D9B2422941D1B96811F4A05F04D1E8
:1051B00023F0FF03B3F5E24F38D02821009B61F3C1
:1051C0009333009300234FF0010B984619469C46F9
:1051D000D7F808E0DFF8E09159F804AB1EEA0A0FAF
:1051E00008D00BFA0CF343EA080303F07F0801230D
:1051F00041EA0A010CF1010CBCF1070FECD12BB113
:105200009DF8033068F347038DF803303EEA01014F
:105210000CD17B88FF2B14D00BD8802B3CD0C02B1B
:1052200004D102230EE0DBB2F82BCBD06FF0850067
:105230009EE7B3F5807F31D0B3F5C07FF6D106236A
:1052400000E003239DF8021063F306118DF80210AD
:1052500010B91EF0030F89D13B79022B2BD01FD838
:10526000012B83D1BDF8021063F3C811ADF8021011
:10527000012A39D0032A23D0002A7FF477AF3B8854
:10528000B3F5105FD2D1182E04D0202E02D0102EEC
:105290007FF46CAF494F2BE00123D3E70423D1E720
:1052A000032B02D0FF2B7FF461AF0221BDF8023047
:1052B00061F3C81367E7BDF8023043F4C07362E7D7
:1052C000412E0ED0202E05D006D8102E02D0182E3A
:1052D0007FF44CAF3A4F0BE0302EFBD0612E7FF4C1
:1052E00045AF0135013EF5E7302E7FF43FAF354F36
:1052F0004FF000080F364FEA1619C14515D11F2E81
:105300001CD81C22002101A803F0C4FC4FF0000AA5
:105310004FF0FF39D04518D11F2E04D9BA20FFF71E
:10532000E9FB002835D1002022E704EB080002F059
:1053300054FE00283AD008F10108DEE74146204635
:1053400003F02CF80028DCD012E707EB0A124FEA32
:105350000A130692BAF1000F1ED1009A0792BDF807
:1053600002202B44C2F3C11205920DF1040C03F18B
:10537000100E624618685968083303C27345944694
:10538000F7D101A904EB0A00FFF788FB38B103F05D
:105390001DF86FF09200EBE6CDF81C90DFE71C21C2
:1053A00001A802F00EFE0AF1010AB3E76FF08A00CD
:1053B000DEE600BF000800063899000000FF072065
:1053C000000000201094055010B590B01C22002160
:1053D00001A803F05FFCF82002F0FFFD08B32022D3
:1053E00000200DEB0201FFF779FC0446F8B901A893
:1053F0004FF4807102F082FF0E4B0F4904930F4B64
:10540000CDE901130E4BF821069320230DEB030287
:10541000FFF794FE202104460DEB010002F0D1FDC0
:1054200005E0F92002F0D9FD0028D8D10446204635
:1054300010B010BD0010C00400240001014B4E80CC
:10544000F800FF7F73B5C5B20E46284601A9144681
:1054500002F089FF88B9BDF80630C3F3C113013BE0
:10546000DBB2022B8FBF6FF08600054AD25C054B82
:105470009EBF13433360C4E9005002B070BD00BF4B
:105480008A9C0000004B4E802DE9F04385B0884691
:1054900001A9814614461D460C9F02F064FF48B9DD
:1054A000B9F1F80348F1FF38022B78F1000804D273
:1054B0006FF0860005B0BDE8F08302F087FF00289A
:1054C000F8D1002CF4D09DF8048018F00F0240F0C1
:1054D0009680BDF80630C3F3C113013BDBB2022B4B
:1054E00000F290804F4908F03008C95C4E4BB8F18B
:1054F000100F43EA0103636039D14C4B236020460F
:1055000002A9FFF729FB0028D4D1029BBB4200F27D
:10551000858044F2121221880198914204BF04222E
:1055200005F8012B0D9A214613609DF804302A7866
:10553000C3F3011363F301022A7003AA08BF07F142
:10554000FF3702F0E5FE0028B4D12B78039A85F8E6
:10555000019062F384032B70238803F44F42B2F569
:10556000824F47D139462846FFF768FDA2E79DF8EC
:105570000700134611462E4A4008F8B9204602F0AB
:10558000BDFE019BC3F38533282B41D144F2421267
:10559000A36813F4A05F47F2421308BF13462380A9
:1055A000244BE3609DF80630C3F30213013B052B47
:1055B00031D8DFE803F01D0D1517301AC60704D5E2
:1055C000062B22D852F82360314340080133D4E738
:1055D000C0236380B8F1000F91D16FF0960069E7A6
:1055E000FF23F6E74FF48073F3E74FF4C073F0E75F
:1055F0008023EEE7B3F5885F7FF45CAFB2E76FF02E
:10560000880057E76FF0910054E76FF0830051E78F
:105610006FF092004EE76FF098004BE76FF0890053
:1056200048E700BF8A9C0000004B4E8001108001BB
:1056300038990000000800062DE9F3411D464FF49B
:105640008073284C8046002017460E46019300F0D8
:10565000BDFA01AB23601123234A0121C4E90223CF
:1056600004F11003636040F61103E36104F12003C9
:1056700063612123089AE3621C4B46F000561A60CE
:10568000099A45F0005542F00052C3E90112202268
:10569000C4F81080A6612762A5626162DA60BFF378
:1056A0005F8F134A1460BFF35F8FBFF35F8F136187
:1056B000BFF35F8FBFF35F8F03235363BFF35F8F2E
:1056C000BFF35F8F9363BFF35F8F00F09DF8431CC0
:1056D0000446FAD0002000F0A3FA204602B0BDE84C
:1056E000F08100BF101F002004000020001F0020D8
:1056F00000000150026100F11402826000F110020A
:105700004160C2600A604268034991604268D360A8
:105710004368103343607047040000204368A3F1DE
:105720001001914240D8012243F80C2C53F8042C6C
:1057300042F0200243F8042C53F8082C42F00052A7
:1057400043F8082C836800F11402A3F11001914280
:105750002ED8012243F80C2C53F8042C42F02002DE
:1057600043F8042C53F8082C42F0005243F8082C5C
:10577000C36803F15402BFF35F8F0F4B1A60BFF38E
:105780005F8FC2680432BFF35F8F1A61BFF35F8F10
:10579000BFF35F8F03225A63BFF35F8FBFF35F8F47
:1057A0009A63BFF35F8F7047103242F80C2CB8E752
:1057B000103242F80C2CCAE70000015038B5BFF394
:1057C0005F8F104CE569BFF35F8FBFF35F8F1023CE
:1057D0006363BFF35F8F012000F07EFDBFF35F8F37
:1057E00000236363BFF35F8FBFF35F8FE36BBFF390
:1057F0005F8F5B06F8D425B1BFF35F8FE561BFF320
:105800005F8F38BD0000015008B500F069FA104AFA
:1058100020B9BFF35F8F906ABFF35F8FBFF35F8FD5
:10582000D36BBFF35F8F10F0240F03F0230304D07A
:10583000FFF7C4FF6FF01F0008BD4FF0FF30002BD3
:10584000FAD1BFF35F8F1063BFF35F8F1846F3E7A2
:1058500000000150C36870B57BB9C36900F128022C
:105860001A60C369454A9A604368C269DB6843F4B9
:105870008063D360C3691033C361836A9B052FD4EF
:105880000368C268DD6800F1EC04302D34BF0826DF
:1058900010261D6901366B1E1340EB1AB34238BF48
:1058A0005B191C44D50004F8015C03F1EB045209B8
:1058B000044400F1ED05A5425CD1802280F8EC2083
:1058C000426AC469C4322260C26993604468C26992
:1058D000E468D460C2691032C26102691A4402618C
:1058E0000269C469D31C23F003039B1A54F8042CE7
:1058F00042EA032244F8042CC26952F8084C2344BB
:1059000043F0005342F8083C026A0368DB68116008
:105910000168026AC96803339160026A23F00303D5
:1059200002F1100101620168C96899420BD000219F
:1059300011610168026AC9685B1A43F08043936091
:10594000036A10330362836A13F4806311D102681F
:105950005169D26891420CD0026A13600268016AF0
:105960005369D2689B1A43F080438B60036A1033FB
:10597000036270BD04F8012D120A9CE704000020A8
:10598000B1F5DE7F70B505461BD303681C6814F0C3
:10599000400419D100F11806304600F017F92946E5
:1059A0000B4B30466B6051F87C2B13231268FFF7CA
:1059B000A1FE084B20466B610123C5E90344AB609F
:1059C00070BD6FF02200FBE76FF00200F8E700BF48
:1059D0007499000055580000BFF35F8F094A13689F
:1059E000BFF35F8F43F48071BFF35F8F1160BFF32C
:1059F0005F8F23F48073BFF35F8F1360BFF35F8FFC
:105A0000704700BF00100150BFF35F8F1522064B97
:105A10005A62BFF35F8FBFF35F8F40F237129A6213
:105A2000BFF35F8F704700BF0010015008B5FFF74C
:105A3000D3FFBFF35F8F064A1368BFF35F8F43F056
:105A40000103BFF35F8F1360BFF35F8F08BD00BF1B
:105A50000010015070B50026C0E9006605460C46EE
:105A6000FEF738FF01232B70FFF7B6FFBFF35F8F00
:105A7000204BDB68BFF35F8F9B08013BACB3226810
:105A800042B19A4205D9FEF747FF6FF03F002E70F2
:105A900070BD1346D4E90115E068002908BF4FF432
:105AA0000071002808BFF1202469BFF35F8F114AFD
:105AB0009360BFF35F8FBFF35F8F1564BFF35F8F9A
:105AC000BFF35F8F5064BFF35F8FBFF35F8F51638E
:105AD000BFF35F8F44F4802444F00104BFF35F8F71
:105AE0001460BFF35F8F0020D2E74FF40071F12004
:105AF0002546DAE70010015070B503780D461446CC
:105B0000002B53D0BFF35F8F2D4A136BBFF35F8F12
:105B10005908C3F34203052B4BD011F0060F02D1F5
:105B20004FF0FF3070BD4368D3B9BFF35F8F536848
:105B3000BFF35F8F032BF3D9224B2349BFF35F8F52
:105B4000D2F88060BFF35F8FBFF35F8F43F8046BC1
:105B5000BFF35F8F8B42F1D1FFF768FF01234360F2
:105B6000BFF35F8F164B9A68BFF35F8F0132B4EBC0
:105B7000021F21D8BFF35F8F5A68BFF35F8FB4EB6A
:105B8000820FCDD884B1BFF35F8FD3F88020BFF3ED
:105B90005F8F291D05F8012B8D424FEA122204F177
:105BA000FF34EFD0002CF5D10020BBE76FF02000D0
:105BB000B8E76FF05100B5E76FF03F00B2E700BF04
:105BC00000100150101001502010015010B5044673
:105BD000FEF780FE104B187803F034F80CB1012367
:105BE0002370BFF35F8F00220C4BDA61BFF35F8F2E
:105BF000BFF35F8F4FF0FF321A63BFF35F8FBFF3C6
:105C00005F8F3422DA61BFF35F8F012203F59223A5
:105C1000C3F8042310BD00BF3C2900200000015040
:105C200010B5044638B9FEF777FEBDE81040074BC3
:105C3000187803F009B803783BB1FEF76DFE034B0B
:105C4000187803F001F80023237010BD3C290020D0
:105C500008B5074B186802F0F9FF064B186802F008
:105C6000F5FFBDE80840002259201146FBF794BE1D
:105C7000E8020020E402002038B5154CD4F80051A9
:105C8000BDB1BFF35F8F134B996ABFF35F8FBFF353
:105C90005F8F4FF0FF321A63BFF35F8F0023C4F8AA
:105CA0000031D4F800310C4B1868BDE8384002F0E0
:105CB000DDBFD4F8083153B100F062F802F0E7FC20
:105CC000C4F80851D4F808310121044BECE738BD81
:105CD0000090055000000150E8020020E40200207E
:105CE00038B5094B1C7864B1084B4FF0FF311D6883
:105CF000284602F0AEFF4FF0FF310446284602F07E
:105D0000B0FF204638BD00BF39290020E80200203E
:105D100010B5064CE36C3BB9214651F84C3B9869F1
:105D200002F0F3FD0123E364014810BD481F002089
:105D3000941F002010B504460E4B187802F082FF25
:105D40000D4B1A68236122605A6862609A68A260EB
:105D50000A4A12689A660023A364FEF7BBFD204638
:105D600002F086FC0028FAD1204602F086FC0028CA
:105D7000F5D110BD3D290020481F0020A499000046
:105D800000487047481F002010B50446054A0369C3
:105D900012689A6602F0ACFD2046BDE8104002F0A1
:105DA0007EBC00BFBC99000010B50446FFF7ECFFB5
